{
  "_format": "hh-sol-artifact-1",
  "contractName": "WarenVestingERC1155",
  "sourceName": "contracts/WarenVestingERC1155.sol",
  "abi": [
    {
      "inputs": [
        {
          "internalType": "contract Waren",
          "name": "_warenERC1155",
          "type": "address"
        }
      ],
      "stateMutability": "nonpayable",
      "type": "constructor"
    },
    {
      "anonymous": false,
      "inputs": [
        {
          "indexed": true,
          "internalType": "address",
          "name": "previousOwner",
          "type": "address"
        },
        {
          "indexed": true,
          "internalType": "address",
          "name": "newOwner",
          "type": "address"
        }
      ],
      "name": "OwnershipTransferred",
      "type": "event"
    },
    {
      "anonymous": false,
      "inputs": [
        {
          "indexed": false,
          "internalType": "address",
          "name": "owner",
          "type": "address"
        },
        {
          "indexed": false,
          "internalType": "uint256",
          "name": "rewards",
          "type": "uint256"
        }
      ],
      "name": "RewardClaimed",
      "type": "event"
    },
    {
      "anonymous": false,
      "inputs": [
        {
          "indexed": false,
          "internalType": "address",
          "name": "owner",
          "type": "address"
        },
        {
          "indexed": false,
          "internalType": "uint8",
          "name": "id",
          "type": "uint8"
        },
        {
          "indexed": false,
          "internalType": "uint16",
          "name": "amount",
          "type": "uint16"
        }
      ],
      "name": "Staked1155",
      "type": "event"
    },
    {
      "anonymous": false,
      "inputs": [
        {
          "indexed": false,
          "internalType": "address",
          "name": "owner",
          "type": "address"
        },
        {
          "indexed": false,
          "internalType": "uint8",
          "name": "id",
          "type": "uint8"
        },
        {
          "indexed": false,
          "internalType": "uint16",
          "name": "amount",
          "type": "uint16"
        }
      ],
      "name": "Unstaked1155",
      "type": "event"
    },
    {
      "inputs": [
        {
          "internalType": "uint8[]",
          "name": "tokenIds",
          "type": "uint8[]"
        },
        {
          "internalType": "uint16[]",
          "name": "tokenAmounts",
          "type": "uint16[]"
        }
      ],
      "name": "batchStakeERC1155",
      "outputs": [],
      "stateMutability": "nonpayable",
      "type": "function"
    },
    {
      "inputs": [
        {
          "internalType": "uint8[]",
          "name": "tokenIds",
          "type": "uint8[]"
        },
        {
          "internalType": "uint16[]",
          "name": "tokenIndexes",
          "type": "uint16[]"
        }
      ],
      "name": "batchUnstakeERC1155",
      "outputs": [],
      "stateMutability": "nonpayable",
      "type": "function"
    },
    {
      "inputs": [],
      "name": "burnExcededSupplyERC20",
      "outputs": [],
      "stateMutability": "nonpayable",
      "type": "function"
    },
    {
      "inputs": [
        {
          "internalType": "uint8",
          "name": "tokenId",
          "type": "uint8"
        },
        {
          "internalType": "uint16",
          "name": "tokenIndex",
          "type": "uint16"
        }
      ],
      "name": "claimRewards",
      "outputs": [],
      "stateMutability": "nonpayable",
      "type": "function"
    },
    {
      "inputs": [],
      "name": "endVestingPreSalesWhitelist",
      "outputs": [
        {
          "internalType": "uint256",
          "name": "",
          "type": "uint256"
        }
      ],
      "stateMutability": "view",
      "type": "function"
    },
    {
      "inputs": [],
      "name": "endVestingPublicSale1",
      "outputs": [
        {
          "internalType": "uint256",
          "name": "",
          "type": "uint256"
        }
      ],
      "stateMutability": "view",
      "type": "function"
    },
    {
      "inputs": [],
      "name": "endVestingPublicSale2",
      "outputs": [
        {
          "internalType": "uint256",
          "name": "",
          "type": "uint256"
        }
      ],
      "stateMutability": "view",
      "type": "function"
    },
    {
      "inputs": [
        {
          "internalType": "address",
          "name": "user",
          "type": "address"
        }
      ],
      "name": "getAllStakedERC1155",
      "outputs": [
        {
          "internalType": "uint8[]",
          "name": "",
          "type": "uint8[]"
        }
      ],
      "stateMutability": "view",
      "type": "function"
    },
    {
      "inputs": [
        {
          "internalType": "address",
          "name": "user",
          "type": "address"
        },
        {
          "internalType": "uint8",
          "name": "tokenId",
          "type": "uint8"
        },
        {
          "internalType": "uint16",
          "name": "tokenIndex",
          "type": "uint16"
        }
      ],
      "name": "getRewards",
      "outputs": [
        {
          "internalType": "uint256",
          "name": "",
          "type": "uint256"
        }
      ],
      "stateMutability": "view",
      "type": "function"
    },
    {
      "inputs": [
        {
          "internalType": "address",
          "name": "user",
          "type": "address"
        },
        {
          "internalType": "uint8",
          "name": "tokenId",
          "type": "uint8"
        }
      ],
      "name": "getStakedERC1155",
      "outputs": [
        {
          "components": [
            {
              "internalType": "uint16",
              "name": "amount",
              "type": "uint16"
            },
            {
              "internalType": "uint256",
              "name": "timestamp",
              "type": "uint256"
            },
            {
              "internalType": "uint256",
              "name": "alreadyClaimed",
              "type": "uint256"
            }
          ],
          "internalType": "struct WarenVestingERC1155.ItemInfo[]",
          "name": "",
          "type": "tuple[]"
        }
      ],
      "stateMutability": "view",
      "type": "function"
    },
    {
      "inputs": [],
      "name": "maxRewardsPreSales",
      "outputs": [
        {
          "internalType": "uint16",
          "name": "",
          "type": "uint16"
        }
      ],
      "stateMutability": "view",
      "type": "function"
    },
    {
      "inputs": [],
      "name": "maxRewardsPublicSale1",
      "outputs": [
        {
          "internalType": "uint16",
          "name": "",
          "type": "uint16"
        }
      ],
      "stateMutability": "view",
      "type": "function"
    },
    {
      "inputs": [],
      "name": "maxRewardsPublicSale2",
      "outputs": [
        {
          "internalType": "uint16",
          "name": "",
          "type": "uint16"
        }
      ],
      "stateMutability": "view",
      "type": "function"
    },
    {
      "inputs": [],
      "name": "maxRewardsWhitelist",
      "outputs": [
        {
          "internalType": "uint16",
          "name": "",
          "type": "uint16"
        }
      ],
      "stateMutability": "view",
      "type": "function"
    },
    {
      "inputs": [],
      "name": "notPaused",
      "outputs": [
        {
          "internalType": "bool",
          "name": "",
          "type": "bool"
        }
      ],
      "stateMutability": "view",
      "type": "function"
    },
    {
      "inputs": [
        {
          "internalType": "address",
          "name": "",
          "type": "address"
        },
        {
          "internalType": "address",
          "name": "",
          "type": "address"
        },
        {
          "internalType": "uint256[]",
          "name": "",
          "type": "uint256[]"
        },
        {
          "internalType": "uint256[]",
          "name": "",
          "type": "uint256[]"
        },
        {
          "internalType": "bytes",
          "name": "",
          "type": "bytes"
        }
      ],
      "name": "onERC1155BatchReceived",
      "outputs": [
        {
          "internalType": "bytes4",
          "name": "",
          "type": "bytes4"
        }
      ],
      "stateMutability": "nonpayable",
      "type": "function"
    },
    {
      "inputs": [
        {
          "internalType": "address",
          "name": "",
          "type": "address"
        },
        {
          "internalType": "address",
          "name": "",
          "type": "address"
        },
        {
          "internalType": "uint256",
          "name": "",
          "type": "uint256"
        },
        {
          "internalType": "uint256",
          "name": "",
          "type": "uint256"
        },
        {
          "internalType": "bytes",
          "name": "",
          "type": "bytes"
        }
      ],
      "name": "onERC1155Received",
      "outputs": [
        {
          "internalType": "bytes4",
          "name": "",
          "type": "bytes4"
        }
      ],
      "stateMutability": "nonpayable",
      "type": "function"
    },
    {
      "inputs": [],
      "name": "owner",
      "outputs": [
        {
          "internalType": "address",
          "name": "",
          "type": "address"
        }
      ],
      "stateMutability": "view",
      "type": "function"
    },
    {
      "inputs": [],
      "name": "renounceOwnership",
      "outputs": [],
      "stateMutability": "nonpayable",
      "type": "function"
    },
    {
      "inputs": [],
      "name": "setPause",
      "outputs": [],
      "stateMutability": "nonpayable",
      "type": "function"
    },
    {
      "inputs": [
        {
          "internalType": "uint256",
          "name": "_period",
          "type": "uint256"
        }
      ],
      "name": "setUnlockPeriod",
      "outputs": [],
      "stateMutability": "nonpayable",
      "type": "function"
    },
    {
      "inputs": [
        {
          "internalType": "contract WarenERC20",
          "name": "_warenERC20",
          "type": "address"
        }
      ],
      "name": "setWarenERC20",
      "outputs": [],
      "stateMutability": "nonpayable",
      "type": "function"
    },
    {
      "inputs": [
        {
          "internalType": "uint8",
          "name": "tokenId",
          "type": "uint8"
        },
        {
          "internalType": "uint16",
          "name": "tokenAmount",
          "type": "uint16"
        }
      ],
      "name": "stakeERC1155",
      "outputs": [],
      "stateMutability": "nonpayable",
      "type": "function"
    },
    {
      "inputs": [],
      "name": "stakingMinimalUnlock",
      "outputs": [
        {
          "internalType": "uint256",
          "name": "",
          "type": "uint256"
        }
      ],
      "stateMutability": "view",
      "type": "function"
    },
    {
      "inputs": [],
      "name": "stakingPeriod",
      "outputs": [
        {
          "internalType": "uint256",
          "name": "",
          "type": "uint256"
        }
      ],
      "stateMutability": "view",
      "type": "function"
    },
    {
      "inputs": [
        {
          "internalType": "bytes4",
          "name": "interfaceId",
          "type": "bytes4"
        }
      ],
      "name": "supportsInterface",
      "outputs": [
        {
          "internalType": "bool",
          "name": "",
          "type": "bool"
        }
      ],
      "stateMutability": "view",
      "type": "function"
    },
    {
      "inputs": [
        {
          "internalType": "address",
          "name": "newOwner",
          "type": "address"
        }
      ],
      "name": "transferOwnership",
      "outputs": [],
      "stateMutability": "nonpayable",
      "type": "function"
    },
    {
      "inputs": [
        {
          "internalType": "uint8",
          "name": "tokenId",
          "type": "uint8"
        },
        {
          "internalType": "uint16",
          "name": "tokenIndex",
          "type": "uint16"
        }
      ],
      "name": "unstakeERC1155",
      "outputs": [],
      "stateMutability": "nonpayable",
      "type": "function"
    },
    {
      "inputs": [],
      "name": "warenERC1155",
      "outputs": [
        {
          "internalType": "contract Waren",
          "name": "",
          "type": "address"
        }
      ],
      "stateMutability": "view",
      "type": "function"
    },
    {
      "inputs": [],
      "name": "warenERC20",
      "outputs": [
        {
          "internalType": "contract WarenERC20",
          "name": "",
          "type": "address"
        }
      ],
      "stateMutability": "view",
      "type": "function"
    }
  ],
  "bytecode": "0x60c0604052600a6080908152600f60a0526200002090600490600262000116565b506201518060055562000038426301d94a806200020c565b6006556200004b4263018a30806200020c565b6007556200005e4263013b16806200020c565b6008553480156200006e57600080fd5b50604051620027a9380380620027a98339810160408190526200009191620001da565b6200009c33620000c6565b60018055600280546001600160a01b0319166001600160a01b039290921691909117905562000233565b600080546001600160a01b038381166001600160a01b0319831681178455604051919092169283917f8be0079c531659141344cd1fd0a4f28419497f9722a3daafe3b4186f6b6457e09190a35050565b82805482825590600052602060002090601f01602090048101928215620001b15791602002820160005b838211156200018057835183826101000a81548160ff021916908360ff160217905550926020019260010160208160000104928301926001030262000140565b8015620001af5782816101000a81549060ff021916905560010160208160000104928301926001030262000180565b505b50620001bf929150620001c3565b5090565b5b80821115620001bf5760008155600101620001c4565b600060208284031215620001ed57600080fd5b81516001600160a01b03811681146200020557600080fd5b9392505050565b600082198211156200022e57634e487b7160e01b600052601160045260246000fd5b500190565b61256680620002436000396000f3fe608060405234801561001057600080fd5b50600436106101da5760003560e01c8063b3832d4911610104578063d5e85a6a116100a2578063f2fde38b11610071578063f2fde38b146103fa578063fb0ea8051461040d578063fbe2524614610420578063ffc8cd141461042957600080fd5b8063d5e85a6a146103a5578063e05ca633146103c5578063e934af06146103d2578063f23a6e61146103db57600080fd5b8063c03d5b47116100de578063c03d5b4714610377578063cd06e52b14610381578063d0b97b041461038a578063d431b1ac1461039d57600080fd5b8063b3832d4914610319578063b80e8bfc1461032c578063bc197c811461033f57600080fd5b80635c2389571161017c5780638da5cb5b1161014b5780638da5cb5b146102ee5780639c42b24e146102ff5780639e2bca0e14610308578063ab228aa91461031057600080fd5b80635c2389571461029257806363df7f3a1461029b57806364d97c1c146102bb578063715018a6146102e657600080fd5b8063343a455e116101b8578063343a455e1461023d5780633d0ddf8414610250578063464700c814610263578063577f22951461027f57600080fd5b806301ffc9a7146101df57806308756290146102075780630b2215af14610228575b600080fd5b6101f26101ed366004612112565b610432565b60405190151581526020015b60405180910390f35b61021a610215366004611fe4565b610469565b6040519081526020016101fe565b61023b61023636600461216e565b61083c565b005b61023b61024b36600461216e565b610872565b61023b61025e36600461213c565b61089b565b61026c6104b081565b60405161ffff90911681526020016101fe565b61023b61028d366004611e7b565b6108a8565b61026c61165281565b6102ae6102a9366004611faf565b6108d2565b6040516101fe91906121f2565b6003546102ce906001600160a01b031681565b6040516001600160a01b0390911681526020016101fe565b61023b610971565b6000546001600160a01b03166102ce565b61026c619c4081565b61023b610985565b61021a60085481565b61023b610327366004612029565b610ab4565b6002546102ce906001600160a01b031681565b61035e61034d366004611e98565b63bc197c8160e01b95945050505050565b6040516001600160e01b031990911681526020016101fe565b61021a62278d0081565b61021a60065481565b61023b61039836600461216e565b610b83565b61023b610bac565b6103b86103b3366004611e7b565b610bc8565b6040516101fe919061224f565b6009546101f29060ff1681565b61021a60075481565b61035e6103e9366004611f46565b63f23a6e6160e01b95945050505050565b61023b610408366004611e7b565b610c55565b61023b61041b366004612029565b610cce565b61021a60055481565b61026c6102ee81565b60006001600160e01b03198216630271189760e51b148061046357506301ffc9a760e01b6001600160e01b03198316145b92915050565b6001600160a01b0383166000908152600a6020908152604080832060ff86168452918290528220805483919061ffff86169081106104a9576104a96124ef565b60009182526020808320604080516060810182526003909402909101805461ffff16845260018082015493850193909352600201549083015290925081908190819060ff8a1614806104fe57508860ff166002145b156106525760065442111561051757600654935061051b565b4293505b62278d0085602001518561052f9190612465565b6105399190612424565b925060018310156105535760009650505050505050610835565b6006831015610597576004600081548110610570576105706124ef565b60009182526020918290209181049091015460ff601f9092166101000a9004169150610634565b6105a2600584612465565b60046001815481106105b6576105b66124ef565b90600052602060002090602091828204019190069054906101000a900460ff1660ff166105e39190612446565b60046000815481106105f7576105f76124ef565b90600052602060002090602091828204019190069054906101000a900460ff1660ff16610624919061240c565b9150606482111561063457606491505b8860ff16600114156106495750619c406107d1565b506104b06107d1565b8860ff166003141561072557600754421115610672576007549350610676565b4293505b62278d0085602001518561068a9190612465565b6106949190612424565b925060038310156106ae5760009650505050505050610835565b600383101580156106bf5750600983105b15610717576106cf600284612465565b60046001815481106106e3576106e36124ef565b90600052602060002090602091828204019190069054906101000a900460ff1660ff166107109190612446565b915061071c565b606491505b506116526107d1565b60085442111561073957600854935061073d565b4293505b62278d008560200151856107519190612465565b61075b9190612424565b925060018310156107755760009650505050505050610835565b60078310156107c757826004600181548110610793576107936124ef565b90600052602060002090602091828204019190069054906101000a900460ff1660ff166107c09190612446565b91506107cc565b606491505b506102ee5b60008282876000015161ffff166107e89190612446565b6107f29190612446565b905060008660400151826108069190612465565b111561082957604086015161081b9082612465565b975050505050505050610835565b60009750505050505050505b9392505050565b3233146108645760405162461bcd60e51b815260040161085b906122c9565b60405180910390fd5b61086e8282610d98565b5050565b3233146108915760405162461bcd60e51b815260040161085b906122c9565b61086e8282611011565b6108a3611567565b600555565b6108b0611567565b600380546001600160a01b0319166001600160a01b0392909216919091179055565b6001600160a01b0382166000908152600a6020908152604080832060ff851684528252808320805482518185028101850190935280835260609492939192909184015b828210156109655760008481526020908190206040805160608101825260038602909201805461ffff16835260018082015484860152600290910154918301919091529083529092019101610915565b50505050905092915050565b610979611567565b61098360006115c1565b565b61098d611567565b6006544210156109df5760405162461bcd60e51b815260206004820152601b60248201527f56657374696e67206973206e6f74207965742066696e69736865640000000000604482015260640161085b565b6003546040516370a0823160e01b81523060048201526001600160a01b03909116906342966c689082906370a082319060240160206040518083038186803b158015610a2a57600080fd5b505afa158015610a3e573d6000803e3d6000fd5b505050506040513d601f19601f82011682018060405250810190610a629190612155565b6040518263ffffffff1660e01b8152600401610a8091815260200190565b600060405180830381600087803b158015610a9a57600080fd5b505af1158015610aae573d6000803e3d6000fd5b50505050565b323314610ad35760405162461bcd60e51b815260040161085b906122c9565b8051825114610b245760405162461bcd60e51b815260206004820152601f60248201527f49647320616e6420696e6465786573206c656e677468206d69736d6174636800604482015260640161085b565b60005b8251811015610b7e57610b6c838281518110610b4557610b456124ef565b6020026020010151838381518110610b5f57610b5f6124ef565b6020026020010151611011565b80610b76816124a8565b915050610b27565b505050565b323314610ba25760405162461bcd60e51b815260040161085b906122c9565b61086e8282611611565b610bb4611567565b6009805460ff19811660ff90911615179055565b6001600160a01b0381166000908152600a6020908152604091829020600101805483518184028101840190945280845260609392830182828015610c4957602002820191906000526020600020906000905b825461010083900a900460ff16815260206001928301818104948501949093039092029101808411610c1a5790505b50505050509050919050565b610c5d611567565b6001600160a01b038116610cc25760405162461bcd60e51b815260206004820152602660248201527f4f776e61626c653a206e6577206f776e657220697320746865207a65726f206160448201526564647265737360d01b606482015260840161085b565b610ccb816115c1565b50565b323314610ced5760405162461bcd60e51b815260040161085b906122c9565b8051825114610d3e5760405162461bcd60e51b815260206004820152601f60248201527f49647320616e6420616d6f756e7473206c656e677468206d69736d6174636800604482015260640161085b565b60005b8251811015610b7e57610d86838281518110610d5f57610d5f6124ef565b6020026020010151838381518110610d7957610d796124ef565b6020026020010151611611565b80610d90816124a8565b915050610d41565b60026001541415610dbb5760405162461bcd60e51b815260040161085b90612323565b6002600155818160ff821615801590610dd7575060058260ff16105b610df35760405162461bcd60e51b815260040161085b906122f7565b336000908152600a6020908152604080832060ff86168452909152902054610e4d5760405162461bcd60e51b815260206004820152600d60248201526c139bc8139195081cdd185ad959609a1b604482015260640161085b565b336000908152600a6020908152604080832060ff8616845290915290205461ffff821610610eb95760405162461bcd60e51b815260206004820152601960248201527809eeae840decc40c4deeadcc8e640e8ded6cadc40d2dcc8caf603b1b604482015260640161085b565b336000908152600a6020908152604080832060ff861684529091528120805461ffff8416908110610eec57610eec6124ef565b90600052602060002090600302016001015442610f099190612465565b90506005548111610f2c5760405162461bcd60e51b815260040161085b9061235a565b6000610f39338787610469565b905080610f465750611006565b336000908152600a6020908152604080832060ff8a1684529091529020805482919061ffff8816908110610f7c57610f7c6124ef565b90600052602060002090600302016002016000828254610f9c919061240c565b90915550610fca905033610fb783662386f26fc10000612446565b6003546001600160a01b03169190611a7c565b60408051338152602081018390527f106f923f993c2149d49b4255ff723acafa1f2d94393f561d3eda32ae348f724191015b60405180910390a1505b505060018055505050565b600260015414156110345760405162461bcd60e51b815260040161085b90612323565b6002600155818160ff821615801590611050575060058260ff16105b61106c5760405162461bcd60e51b815260040161085b906122f7565b336000908152600a6020908152604080832060ff861684529091529020546110c65760405162461bcd60e51b815260206004820152600d60248201526c139bc8139195081cdd185ad959609a1b604482015260640161085b565b336000908152600a6020908152604080832060ff8616845290915290205461ffff8216106111325760405162461bcd60e51b815260206004820152601960248201527809eeae840decc40c4deeadcc8e640e8ded6cadc40d2dcc8caf603b1b604482015260640161085b565b336000908152600a6020908152604080832060ff861684529091528120805461ffff8416908110611165576111656124ef565b906000526020600020906003020160010154426111829190612465565b905060055481116111a55760405162461bcd60e51b815260040161085b9061235a565b336000908152600a6020908152604080832060ff89168452918290528220805491929161ffff88169081106111dc576111dc6124ef565b60009182526020808320604080516060810182526003909402909101805461ffff168452600181015492840192909252600290910154908201529150611223338989610469565b60ff8916600090815260208590526040902080549192509061124790600190612465565b81548110611257576112576124ef565b90600052602060002090600302018360000160008a60ff1681526020019081526020016000208861ffff1681548110611292576112926124ef565b600091825260208083208454600390930201805461ffff191661ffff90931692909217825560018085015490830155600293840154939091019290925560ff8a16815290849052604090208054806112ec576112ec6124d9565b60008281526020808220600360001990940193840201805461ffff19168155600181018390556002018290559190925560ff8a16825284905260409020546114535760005b6001840154811015611451578860ff16846001018281548110611356576113566124ef565b60009182526020918290209181049091015460ff601f9092166101000a900416141561143f5760018085018054909161138e91612465565b8154811061139e5761139e6124ef565b90600052602060002090602091828204019190069054906101000a900460ff168460010182815481106113d3576113d36124ef565b90600052602060002090602091828204019190066101000a81548160ff021916908360ff16021790555083600101805480611410576114106124d9565b60019003818190600052602060002090602091828204019190066101000a81549060ff02191690559055611451565b80611449816124a8565b915050611331565b505b80156114a85761146e33610fb783662386f26fc10000612446565b60408051338152602081018390527f106f923f993c2149d49b4255ff723acafa1f2d94393f561d3eda32ae348f7241910160405180910390a15b6002548251604051637921219560e11b81526001600160a01b039092169163f242432a916114df91309133918e91906004016121b4565b600060405180830381600087803b1580156114f957600080fd5b505af115801561150d573d6000803e3d6000fd5b505083516040805133815260ff8d16602082015261ffff90921682820152517fef73f054c8190a1e8f4e29ab361de2d3dd58bf1b03d49410053174c8594b1db69350908190036060019150a1505060018055505050505050565b6000546001600160a01b031633146109835760405162461bcd60e51b815260206004820181905260248201527f4f776e61626c653a2063616c6c6572206973206e6f7420746865206f776e6572604482015260640161085b565b600080546001600160a01b038381166001600160a01b0319831681178455604051919092169283917f8be0079c531659141344cd1fd0a4f28419497f9722a3daafe3b4186f6b6457e09190a35050565b600260015414156116345760405162461bcd60e51b815260040161085b90612323565b60026001556009548290829060ff1661169a5760405162461bcd60e51b815260206004820152602260248201527f5374616b696e6720756e617661696c61626c6520666f7220746865206d6f6d656044820152611b9d60f21b606482015260840161085b565b60008161ffff16116116dc5760405162461bcd60e51b815260206004820152600b60248201526a4c696d6974206d696e203160a81b604482015260640161085b565b60008260ff161180156116f2575060058260ff16105b61170e5760405162461bcd60e51b815260040161085b906122f7565b8160ff166001148061172357508160ff166002145b1561178d5760065442106117885760405162461bcd60e51b815260206004820152602660248201527f56657374696e6720476f6c6420616e642057686974656c6973742069732066696044820152651b9a5cda195960d21b606482015260840161085b565b61184f565b8160ff16600314156117f45760075442106117885760405162461bcd60e51b815260206004820152602160248201527f56657374696e67205075626c69632053616c6520312069732066696e697368656044820152601960fa1b606482015260840161085b565b600854421061184f5760405162461bcd60e51b815260206004820152602160248201527f56657374696e67205075626c69632053616c6520322069732066696e697368656044820152601960fa1b606482015260840161085b565b600254604051627eeac760e11b815233600482015260ff841660248201526000916001600160a01b03169062fdd58e9060440160206040518083038186803b15801561189a57600080fd5b505afa1580156118ae573d6000803e3d6000fd5b505050506040513d601f19601f820116820180604052508101906118d29190612155565b1161190b5760405162461bcd60e51b81526020600482015260096024820152682737ba1037bbb732b960b91b604482015260640161085b565b600254604051637921219560e11b81526001600160a01b039091169063f242432a906119419033903090899089906004016121b4565b600060405180830381600087803b15801561195b57600080fd5b505af115801561196f573d6000803e3d6000fd5b5050336000908152600a60209081526040808320815160608101835261ffff8a168152428185015280830185905260ff8b1685529281905292205491935091506119ec57600180830180549182018155600090815260209081902090820401805460ff808a16601f9094166101000a938402930219169190911790555b60ff8616600081815260208481526040808320805460018082018355918552938390208651600390950201805461ffff191661ffff958616178155868401519181019190915585820151600290910155805133815291820193909352908716918101919091527f8d1984cab4d8d28c8de0f6e57716ffc51cbec50cd2d87c27a9a7af7eb386a5be90606001610ffc565b604080516001600160a01b03848116602483015260448083018590528351808403909101815260649092018352602080830180516001600160e01b031663a9059cbb60e01b17905283518085019094528084527f5361666545524332303a206c6f772d6c6576656c2063616c6c206661696c656490840152610b7e92869291600091611b0c918516908490611b89565b805190915015610b7e5780806020019051810190611b2a91906120f0565b610b7e5760405162461bcd60e51b815260206004820152602a60248201527f5361666545524332303a204552433230206f7065726174696f6e20646964206e6044820152691bdd081cdd58d8d9595960b21b606482015260840161085b565b6060611b988484600085611ba0565b949350505050565b606082471015611c015760405162461bcd60e51b815260206004820152602660248201527f416464726573733a20696e73756666696369656e742062616c616e636520666f6044820152651c8818d85b1b60d21b606482015260840161085b565b6001600160a01b0385163b611c585760405162461bcd60e51b815260206004820152601d60248201527f416464726573733a2063616c6c20746f206e6f6e2d636f6e7472616374000000604482015260640161085b565b600080866001600160a01b03168587604051611c749190612198565b60006040518083038185875af1925050503d8060008114611cb1576040519150601f19603f3d011682016040523d82523d6000602084013e611cb6565b606091505b5091509150611cc6828286611cd1565b979650505050505050565b60608315611ce0575081610835565b825115611cf05782518084602001fd5b8160405162461bcd60e51b815260040161085b9190612296565b600082601f830112611d1b57600080fd5b81356020611d30611d2b836123e8565b6123b7565b80838252828201915082860187848660051b8901011115611d5057600080fd5b60005b85811015611d7657611d6482611e53565b84529284019290840190600101611d53565b5090979650505050505050565b600082601f830112611d9457600080fd5b81356020611da4611d2b836123e8565b80838252828201915082860187848660051b8901011115611dc457600080fd5b60005b85811015611d7657813584529284019290840190600101611dc7565b600082601f830112611df457600080fd5b813567ffffffffffffffff811115611e0e57611e0e612505565b611e21601f8201601f19166020016123b7565b818152846020838601011115611e3657600080fd5b816020850160208301376000918101602001919091529392505050565b803561ffff81168114611e6557600080fd5b919050565b803560ff81168114611e6557600080fd5b600060208284031215611e8d57600080fd5b81356108358161251b565b600080600080600060a08688031215611eb057600080fd5b8535611ebb8161251b565b94506020860135611ecb8161251b565b9350604086013567ffffffffffffffff80821115611ee857600080fd5b611ef489838a01611d83565b94506060880135915080821115611f0a57600080fd5b611f1689838a01611d83565b93506080880135915080821115611f2c57600080fd5b50611f3988828901611de3565b9150509295509295909350565b600080600080600060a08688031215611f5e57600080fd5b8535611f698161251b565b94506020860135611f798161251b565b93506040860135925060608601359150608086013567ffffffffffffffff811115611fa357600080fd5b611f3988828901611de3565b60008060408385031215611fc257600080fd5b8235611fcd8161251b565b9150611fdb60208401611e6a565b90509250929050565b600080600060608486031215611ff957600080fd5b83356120048161251b565b925061201260208501611e6a565b915061202060408501611e53565b90509250925092565b6000806040838503121561203c57600080fd5b823567ffffffffffffffff8082111561205457600080fd5b818501915085601f83011261206857600080fd5b81356020612078611d2b836123e8565b8083825282820191508286018a848660051b890101111561209857600080fd5b600096505b848710156120c2576120ae81611e6a565b83526001969096019591830191830161209d565b50965050860135925050808211156120d957600080fd5b506120e685828601611d0a565b9150509250929050565b60006020828403121561210257600080fd5b8151801515811461083557600080fd5b60006020828403121561212457600080fd5b81356001600160e01b03198116811461083557600080fd5b60006020828403121561214e57600080fd5b5035919050565b60006020828403121561216757600080fd5b5051919050565b6000806040838503121561218157600080fd5b61218a83611e6a565b9150611fdb60208401611e53565b600082516121aa81846020870161247c565b9190910192915050565b6001600160a01b03948516815292909316602083015260ff16604082015261ffff909116606082015260a06080820181905260009082015260c00190565b602080825282518282018190526000919060409081850190868401855b82811015612242578151805161ffff1685528681015187860152850151858501526060909301929085019060010161220f565b5091979650505050505050565b6020808252825182820181905260009190848201906040850190845b8181101561228a57835160ff168352928401929184019160010161226b565b50909695505050505050565b60208152600082518060208401526122b581604085016020870161247c565b601f01601f19169190910160400192915050565b60208082526014908201527310d85b1b195c881a5cc8184818dbdb9d1c9858dd60621b604082015260600190565b6020808252601290820152714e465420646f65736e27742065786973747360701b604082015260600190565b6020808252601f908201527f5265656e7472616e637947756172643a207265656e7472616e742063616c6c00604082015260600190565b6020808252603a908201527f556e61626c6520746f20756e7374616b65206f7220676574207265776172647360408201527f206265666f726520746865206d696e696d756d20706572696f64000000000000606082015260800190565b604051601f8201601f1916810167ffffffffffffffff811182821017156123e0576123e0612505565b604052919050565b600067ffffffffffffffff82111561240257612402612505565b5060051b60200190565b6000821982111561241f5761241f6124c3565b500190565b60008261244157634e487b7160e01b600052601260045260246000fd5b500490565b6000816000190483118215151615612460576124606124c3565b500290565b600082821015612477576124776124c3565b500390565b60005b8381101561249757818101518382015260200161247f565b83811115610aae5750506000910152565b60006000198214156124bc576124bc6124c3565b5060010190565b634e487b7160e01b600052601160045260246000fd5b634e487b7160e01b600052603160045260246000fd5b634e487b7160e01b600052603260045260246000fd5b634e487b7160e01b600052604160045260246000fd5b6001600160a01b0381168114610ccb57600080fdfea2646970667358221220b85de6d40f879cb894b52677c788b7bf7cb5088b7dbfece1fb7c6d00d3a8c38364736f6c63430008070033",
  "linkReferences": {},
  "deployedLinkReferences": {}
}