{
  "_format": "hh-sol-artifact-1",
  "contractName": "WarenStakingERC20",
  "sourceName": "contracts/WarenStakingERC20.sol",
  "abi": [
    {
      "inputs": [
        {
          "internalType": "address",
          "name": "_stakingAndRewardsToken",
          "type": "address"
        }
      ],
      "stateMutability": "nonpayable",
      "type": "constructor"
    },
    {
      "anonymous": false,
      "inputs": [
        {
          "indexed": true,
          "internalType": "address",
          "name": "previousOwner",
          "type": "address"
        },
        {
          "indexed": true,
          "internalType": "address",
          "name": "newOwner",
          "type": "address"
        }
      ],
      "name": "OwnershipTransferred",
      "type": "event"
    },
    {
      "anonymous": false,
      "inputs": [
        {
          "indexed": false,
          "internalType": "uint256",
          "name": "reward",
          "type": "uint256"
        }
      ],
      "name": "RewardAdded",
      "type": "event"
    },
    {
      "anonymous": false,
      "inputs": [
        {
          "indexed": false,
          "internalType": "address",
          "name": "owner",
          "type": "address"
        },
        {
          "indexed": false,
          "internalType": "uint256",
          "name": "reward",
          "type": "uint256"
        }
      ],
      "name": "RewardPaid",
      "type": "event"
    },
    {
      "anonymous": false,
      "inputs": [
        {
          "indexed": false,
          "internalType": "address",
          "name": "owner",
          "type": "address"
        },
        {
          "indexed": false,
          "internalType": "uint256",
          "name": "amount",
          "type": "uint256"
        }
      ],
      "name": "Staked",
      "type": "event"
    },
    {
      "anonymous": false,
      "inputs": [
        {
          "indexed": false,
          "internalType": "address",
          "name": "owner",
          "type": "address"
        },
        {
          "indexed": false,
          "internalType": "uint256",
          "name": "amount",
          "type": "uint256"
        }
      ],
      "name": "Unstaked",
      "type": "event"
    },
    {
      "inputs": [
        {
          "internalType": "address",
          "name": "",
          "type": "address"
        }
      ],
      "name": "balanceOf",
      "outputs": [
        {
          "internalType": "uint256",
          "name": "",
          "type": "uint256"
        }
      ],
      "stateMutability": "view",
      "type": "function"
    },
    {
      "inputs": [],
      "name": "claimReward",
      "outputs": [],
      "stateMutability": "nonpayable",
      "type": "function"
    },
    {
      "inputs": [],
      "name": "duration",
      "outputs": [
        {
          "internalType": "uint256",
          "name": "",
          "type": "uint256"
        }
      ],
      "stateMutability": "view",
      "type": "function"
    },
    {
      "inputs": [
        {
          "internalType": "address",
          "name": "_account",
          "type": "address"
        }
      ],
      "name": "earned",
      "outputs": [
        {
          "internalType": "uint256",
          "name": "",
          "type": "uint256"
        }
      ],
      "stateMutability": "view",
      "type": "function"
    },
    {
      "inputs": [],
      "name": "finishAt",
      "outputs": [
        {
          "internalType": "uint256",
          "name": "",
          "type": "uint256"
        }
      ],
      "stateMutability": "view",
      "type": "function"
    },
    {
      "inputs": [
        {
          "internalType": "address",
          "name": "",
          "type": "address"
        }
      ],
      "name": "firstStakeOf",
      "outputs": [
        {
          "internalType": "uint256",
          "name": "",
          "type": "uint256"
        }
      ],
      "stateMutability": "view",
      "type": "function"
    },
    {
      "inputs": [],
      "name": "lastTimeRewardApplicable",
      "outputs": [
        {
          "internalType": "uint256",
          "name": "",
          "type": "uint256"
        }
      ],
      "stateMutability": "view",
      "type": "function"
    },
    {
      "inputs": [],
      "name": "notPaused",
      "outputs": [
        {
          "internalType": "bool",
          "name": "",
          "type": "bool"
        }
      ],
      "stateMutability": "view",
      "type": "function"
    },
    {
      "inputs": [
        {
          "internalType": "uint256",
          "name": "_amount",
          "type": "uint256"
        }
      ],
      "name": "notifyRewardAmount",
      "outputs": [],
      "stateMutability": "nonpayable",
      "type": "function"
    },
    {
      "inputs": [],
      "name": "owner",
      "outputs": [
        {
          "internalType": "address",
          "name": "",
          "type": "address"
        }
      ],
      "stateMutability": "view",
      "type": "function"
    },
    {
      "inputs": [],
      "name": "renounceOwnership",
      "outputs": [],
      "stateMutability": "nonpayable",
      "type": "function"
    },
    {
      "inputs": [],
      "name": "rewardPerToken",
      "outputs": [
        {
          "internalType": "uint256",
          "name": "",
          "type": "uint256"
        }
      ],
      "stateMutability": "view",
      "type": "function"
    },
    {
      "inputs": [],
      "name": "rewardPerTokenStored",
      "outputs": [
        {
          "internalType": "uint256",
          "name": "",
          "type": "uint256"
        }
      ],
      "stateMutability": "view",
      "type": "function"
    },
    {
      "inputs": [],
      "name": "rewardRate",
      "outputs": [
        {
          "internalType": "uint256",
          "name": "",
          "type": "uint256"
        }
      ],
      "stateMutability": "view",
      "type": "function"
    },
    {
      "inputs": [
        {
          "internalType": "address",
          "name": "",
          "type": "address"
        }
      ],
      "name": "rewards",
      "outputs": [
        {
          "internalType": "uint256",
          "name": "",
          "type": "uint256"
        }
      ],
      "stateMutability": "view",
      "type": "function"
    },
    {
      "inputs": [],
      "name": "setPause",
      "outputs": [],
      "stateMutability": "nonpayable",
      "type": "function"
    },
    {
      "inputs": [
        {
          "internalType": "uint256",
          "name": "_duration",
          "type": "uint256"
        }
      ],
      "name": "setRewardsDuration",
      "outputs": [],
      "stateMutability": "nonpayable",
      "type": "function"
    },
    {
      "inputs": [
        {
          "internalType": "uint256",
          "name": "_amount",
          "type": "uint256"
        }
      ],
      "name": "stake",
      "outputs": [],
      "stateMutability": "nonpayable",
      "type": "function"
    },
    {
      "inputs": [],
      "name": "stakingAndRewardsToken",
      "outputs": [
        {
          "internalType": "contract WarenERC20",
          "name": "",
          "type": "address"
        }
      ],
      "stateMutability": "view",
      "type": "function"
    },
    {
      "inputs": [],
      "name": "totalSupply",
      "outputs": [
        {
          "internalType": "uint256",
          "name": "",
          "type": "uint256"
        }
      ],
      "stateMutability": "view",
      "type": "function"
    },
    {
      "inputs": [
        {
          "internalType": "address",
          "name": "newOwner",
          "type": "address"
        }
      ],
      "name": "transferOwnership",
      "outputs": [],
      "stateMutability": "nonpayable",
      "type": "function"
    },
    {
      "inputs": [
        {
          "internalType": "uint256",
          "name": "_amount",
          "type": "uint256"
        }
      ],
      "name": "unstake",
      "outputs": [],
      "stateMutability": "nonpayable",
      "type": "function"
    },
    {
      "inputs": [],
      "name": "updatedAt",
      "outputs": [
        {
          "internalType": "uint256",
          "name": "",
          "type": "uint256"
        }
      ],
      "stateMutability": "view",
      "type": "function"
    },
    {
      "inputs": [
        {
          "internalType": "address",
          "name": "",
          "type": "address"
        }
      ],
      "name": "userRewardPerTokenPaid",
      "outputs": [
        {
          "internalType": "uint256",
          "name": "",
          "type": "uint256"
        }
      ],
      "stateMutability": "view",
      "type": "function"
    }
  ],
  "bytecode": "0x60a060405234801561001057600080fd5b5060405161148b38038061148b83398101604081905261002f916100a1565b61003833610051565b6001805560601b6001600160601b0319166080526100d1565b600080546001600160a01b038381166001600160a01b0319831681178455604051919092169283917f8be0079c531659141344cd1fd0a4f28419497f9722a3daafe3b4186f6b6457e09190a35050565b6000602082840312156100b357600080fd5b81516001600160a01b03811681146100ca57600080fd5b9392505050565b60805160601c61138061010b60003960008181610201015281816105e5015281816107b801528181610a660152610c1f01526113806000f3fe608060405234801561001057600080fd5b50600436106101575760003560e01c80637b0a47ee116100c3578063cc1a378f1161007c578063cc1a378f146102d2578063cd3daf9d146102e5578063d431b1ac146102ed578063df136d65146102f5578063e05ca633146102fe578063f2fde38b1461031b57600080fd5b80637b0a47ee1461027557806380faa57d1461027e5780638b876347146102865780638da5cb5b146102a6578063a694fc3a146102b7578063b88a802f146102ca57600080fd5b80633c6b16ab116101155780633c6b16ab146101e957806345b5d3e7146101fc57806367d3b4881461023b57806370a0823114610244578063715018a6146102645780637519ab501461026c57600080fd5b80628cc2621461015c5780630700037d146101825780630fb5a6b4146101a257806318160ddd146101ab5780632e17de78146101b457806339c285e1146101c9575b600080fd5b61016f61016a366004611195565b61032e565b6040519081526020015b60405180910390f35b61016f610190366004611195565b60096020526000908152604090205481565b61016f60025481565b61016f60075481565b6101c76101c23660046111e0565b6103ab565b005b61016f6101d7366004611195565b600b6020526000908152604090205481565b6101c76101f73660046111e0565b610688565b6102237f000000000000000000000000000000000000000000000000000000000000000081565b6040516001600160a01b039091168152602001610179565b61016f60035481565b61016f610252366004611195565b600a6020526000908152604090205481565b6101c7610902565b61016f60045481565b61016f60055481565b61016f610916565b61016f610294366004611195565b60086020526000908152604090205481565b6000546001600160a01b0316610223565b6101c76102c53660046111e0565b610929565b6101c7610b34565b6101c76102e03660046111e0565b610c84565b61016f610ce2565b6101c7610d44565b61016f60065481565b600c5461030b9060ff1681565b6040519015158152602001610179565b6101c7610329366004611195565b610d60565b6001600160a01b0381166000908152600960209081526040808320546008909252822054670de0b6b3a764000090610364610ce2565b61036e91906112f1565b6001600160a01b0385166000908152600a602052604090205461039191906112d2565b61039b91906112b0565b6103a59190611298565b92915050565b600260015414156103d75760405162461bcd60e51b81526004016103ce90611261565b60405180910390fd5b6002600155336103e5610ce2565b6006556103f0610916565b6004556001600160a01b038116156104375761040b8161032e565b6001600160a01b0382166000908152600960209081526040808320939093556006546008909152919020555b600082116104875760405162461bcd60e51b815260206004820152601d60248201527f416d6f756e74206d7573742062652067726561746572207468616e203000000060448201526064016103ce565b336000908152600a60205260409020548211156104d95760405162461bcd60e51b815260206004820152601060248201526f4e6f7420656e6f7567682066756e647360801b60448201526064016103ce565b336000908152600b60205260408120546104f69062f14280611298565b42101561052857336000908152600a602052604090205460649061051b9060026112d2565b61052591906112b0565b90505b336000908152600a6020526040812080548592906105479084906112f1565b9091555050336000908152600a602052604090205461057157336000908152600b60205260408120555b826007600082825461058391906112f1565b90915550503360009081526009602052604081205482906105a5908690611298565b6105af91906112f1565b33600090815260096020526040902054909150156105d857336000908152600960205260408120555b61060c6001600160a01b037f0000000000000000000000000000000000000000000000000000000000000000163383610dd9565b60408051338152602081018690527f0f5bb82176feb1b5e747e28471aa92156a04d9f3ab9f45f28e2d704232b93f75910160405180910390a160408051338152602081018390527fe2403640ba68fed3a2f88b7557551d1993f84b99bb10ff833f0cf8db0c5e0486910160405180910390a15050600180555050565b610690610e41565b600061069a610ce2565b6006556106a5610916565b6004556001600160a01b038116156106ec576106c08161032e565b6001600160a01b0382166000908152600960209081526040808320939093556006546008909152919020555b600354421061070a5760025461070290836112b0565b600555610746565b60006005544260035461071d91906112f1565b61072791906112d2565b6002549091506107378285611298565b61074191906112b0565b600555505b6000600554116107a35760405162461bcd60e51b815260206004820152602260248201527f5265776172642072617465206d7573742062652067726561746572207468616e604482015261020360f41b60648201526084016103ce565b6040516370a0823160e01b81523060048201527f00000000000000000000000000000000000000000000000000000000000000006001600160a01b0316906370a082319060240160206040518083038186803b15801561080257600080fd5b505afa158015610816573d6000803e3d6000fd5b505050506040513d601f19601f8201168201806040525081019061083a91906111f9565b60025460055461084a91906112d2565b11156108b75760405162461bcd60e51b815260206004820152603660248201527f42616c616e6365206f6620636f6e7472616374206d75737420626520677265616044820152751d195c881d1a185b881c995dd85c9908185b5bdd5b9d60521b60648201526084016103ce565b6002546108c49042611298565b600355426004556040518281527fde88a922e0d3b88b24e9623efeb464919c6bf9f66857a65e2bfcf2ce87a9433d9060200160405180910390a15050565b61090a610e41565b6109146000610e9b565b565b600061092460035442610eeb565b905090565b6002600154141561094c5760405162461bcd60e51b81526004016103ce90611261565b60026001553361095a610ce2565b600655610965610916565b6004556001600160a01b038116156109ac576109808161032e565b6001600160a01b0382166000908152600960209081526040808320939093556006546008909152919020555b600c5460ff16610a095760405162461bcd60e51b815260206004820152602260248201527f5374616b696e6720756e617661696c61626c6520666f7220746865206d6f6d656044820152611b9d60f21b60648201526084016103ce565b60008211610a595760405162461bcd60e51b815260206004820152601d60248201527f416d6f756e74206d7573742062652067726561746572207468616e203000000060448201526064016103ce565b610a8e6001600160a01b037f000000000000000000000000000000000000000000000000000000000000000016333085610f04565b336000908152600a602052604081208054849290610aad908490611298565b925050819055508160076000828254610ac69190611298565b9091555050336000908152600b6020526040902054610af257336000908152600b602052604090204290555b60408051338152602081018490527f9e71bc8eea02a63969f509818f2dafb9254532904319f9dbda79b67bd34a5f3d91015b60405180910390a1505060018055565b60026001541415610b575760405162461bcd60e51b81526004016103ce90611261565b600260015533610b65610ce2565b600655610b70610916565b6004556001600160a01b03811615610bb757610b8b8161032e565b6001600160a01b0382166000908152600960209081526040808320939093556006546008909152919020555b3360009081526009602052604090205480610c095760405162461bcd60e51b81526020600482015260126024820152714e6f2072657761726420746f20636c61696d60701b60448201526064016103ce565b33600081815260096020526040812055610c4e907f00000000000000000000000000000000000000000000000000000000000000006001600160a01b03169083610dd9565b60408051338152602081018390527fe2403640ba68fed3a2f88b7557551d1993f84b99bb10ff833f0cf8db0c5e04869101610b24565b610c8c610e41565b6003544211610cdd5760405162461bcd60e51b815260206004820152601c60248201527f526577617264206475726174696f6e206e6f742066696e69736865640000000060448201526064016103ce565b600255565b600060075460001415610cf6575060065490565b600754600454610d04610916565b610d0e91906112f1565b600554610d1b91906112d2565b610d2d90670de0b6b3a76400006112d2565b610d3791906112b0565b6006546109249190611298565b610d4c610e41565b600c805460ff19811660ff90911615179055565b610d68610e41565b6001600160a01b038116610dcd5760405162461bcd60e51b815260206004820152602660248201527f4f776e61626c653a206e6577206f776e657220697320746865207a65726f206160448201526564647265737360d01b60648201526084016103ce565b610dd681610e9b565b50565b6040516001600160a01b038316602482015260448101829052610e3c90849063a9059cbb60e01b906064015b60408051601f198184030181529190526020810180516001600160e01b03166001600160e01b031990931692909217909152610f42565b505050565b6000546001600160a01b031633146109145760405162461bcd60e51b815260206004820181905260248201527f4f776e61626c653a2063616c6c6572206973206e6f7420746865206f776e657260448201526064016103ce565b600080546001600160a01b038381166001600160a01b0319831681178455604051919092169283917f8be0079c531659141344cd1fd0a4f28419497f9722a3daafe3b4186f6b6457e09190a35050565b600081831115610efb5781610efd565b825b9392505050565b6040516001600160a01b0380851660248301528316604482015260648101829052610f3c9085906323b872dd60e01b90608401610e05565b50505050565b6000610f97826040518060400160405280602081526020017f5361666545524332303a206c6f772d6c6576656c2063616c6c206661696c6564815250856001600160a01b03166110149092919063ffffffff16565b805190915015610e3c5780806020019051810190610fb591906111be565b610e3c5760405162461bcd60e51b815260206004820152602a60248201527f5361666545524332303a204552433230206f7065726174696f6e20646964206e6044820152691bdd081cdd58d8d9595960b21b60648201526084016103ce565b6060611023848460008561102b565b949350505050565b60608247101561108c5760405162461bcd60e51b815260206004820152602660248201527f416464726573733a20696e73756666696369656e742062616c616e636520666f6044820152651c8818d85b1b60d21b60648201526084016103ce565b6001600160a01b0385163b6110e35760405162461bcd60e51b815260206004820152601d60248201527f416464726573733a2063616c6c20746f206e6f6e2d636f6e747261637400000060448201526064016103ce565b600080866001600160a01b031685876040516110ff9190611212565b60006040518083038185875af1925050503d806000811461113c576040519150601f19603f3d011682016040523d82523d6000602084013e611141565b606091505b509150915061115182828661115c565b979650505050505050565b6060831561116b575081610efd565b82511561117b5782518084602001fd5b8160405162461bcd60e51b81526004016103ce919061122e565b6000602082840312156111a757600080fd5b81356001600160a01b0381168114610efd57600080fd5b6000602082840312156111d057600080fd5b81518015158114610efd57600080fd5b6000602082840312156111f257600080fd5b5035919050565b60006020828403121561120b57600080fd5b5051919050565b60008251611224818460208701611308565b9190910192915050565b602081526000825180602084015261124d816040850160208701611308565b601f01601f19169190910160400192915050565b6020808252601f908201527f5265656e7472616e637947756172643a207265656e7472616e742063616c6c00604082015260600190565b600082198211156112ab576112ab611334565b500190565b6000826112cd57634e487b7160e01b600052601260045260246000fd5b500490565b60008160001904831182151516156112ec576112ec611334565b500290565b60008282101561130357611303611334565b500390565b60005b8381101561132357818101518382015260200161130b565b83811115610f3c5750506000910152565b634e487b7160e01b600052601160045260246000fdfea26469706673582212203fbb37de00b8b4e8d91c5e10716f5d8dcf33d50a13901239c041abda39f2643c64736f6c63430008070033",
  "linkReferences": {},
  "deployedLinkReferences": {}
}