{
  "_format": "hh-sol-artifact-1",
  "contractName": "WarenERC20",
  "sourceName": "contracts/WarenERC20.sol",
  "abi": [
    {
      "inputs": [
        {
          "internalType": "address",
          "name": "_vesting",
          "type": "address"
        }
      ],
      "stateMutability": "nonpayable",
      "type": "constructor"
    },
    {
      "anonymous": false,
      "inputs": [
        {
          "indexed": true,
          "internalType": "address",
          "name": "owner",
          "type": "address"
        },
        {
          "indexed": true,
          "internalType": "address",
          "name": "spender",
          "type": "address"
        },
        {
          "indexed": false,
          "internalType": "uint256",
          "name": "value",
          "type": "uint256"
        }
      ],
      "name": "Approval",
      "type": "event"
    },
    {
      "anonymous": false,
      "inputs": [
        {
          "indexed": true,
          "internalType": "address",
          "name": "previousOwner",
          "type": "address"
        },
        {
          "indexed": true,
          "internalType": "address",
          "name": "newOwner",
          "type": "address"
        }
      ],
      "name": "OwnershipTransferred",
      "type": "event"
    },
    {
      "anonymous": false,
      "inputs": [
        {
          "indexed": true,
          "internalType": "address",
          "name": "from",
          "type": "address"
        },
        {
          "indexed": true,
          "internalType": "address",
          "name": "to",
          "type": "address"
        },
        {
          "indexed": false,
          "internalType": "uint256",
          "name": "value",
          "type": "uint256"
        }
      ],
      "name": "Transfer",
      "type": "event"
    },
    {
      "inputs": [
        {
          "internalType": "address",
          "name": "owner",
          "type": "address"
        },
        {
          "internalType": "address",
          "name": "spender",
          "type": "address"
        }
      ],
      "name": "allowance",
      "outputs": [
        {
          "internalType": "uint256",
          "name": "",
          "type": "uint256"
        }
      ],
      "stateMutability": "view",
      "type": "function"
    },
    {
      "inputs": [],
      "name": "alreadyDistributedReserves",
      "outputs": [
        {
          "internalType": "bool",
          "name": "",
          "type": "bool"
        }
      ],
      "stateMutability": "view",
      "type": "function"
    },
    {
      "inputs": [],
      "name": "alreadyDistributedTeams",
      "outputs": [
        {
          "internalType": "uint256",
          "name": "",
          "type": "uint256"
        }
      ],
      "stateMutability": "view",
      "type": "function"
    },
    {
      "inputs": [
        {
          "internalType": "address",
          "name": "spender",
          "type": "address"
        },
        {
          "internalType": "uint256",
          "name": "amount",
          "type": "uint256"
        }
      ],
      "name": "approve",
      "outputs": [
        {
          "internalType": "bool",
          "name": "",
          "type": "bool"
        }
      ],
      "stateMutability": "nonpayable",
      "type": "function"
    },
    {
      "inputs": [
        {
          "internalType": "address",
          "name": "account",
          "type": "address"
        }
      ],
      "name": "balanceOf",
      "outputs": [
        {
          "internalType": "uint256",
          "name": "",
          "type": "uint256"
        }
      ],
      "stateMutability": "view",
      "type": "function"
    },
    {
      "inputs": [
        {
          "internalType": "uint256",
          "name": "amount",
          "type": "uint256"
        }
      ],
      "name": "burn",
      "outputs": [],
      "stateMutability": "nonpayable",
      "type": "function"
    },
    {
      "inputs": [
        {
          "internalType": "address",
          "name": "account",
          "type": "address"
        },
        {
          "internalType": "uint256",
          "name": "amount",
          "type": "uint256"
        }
      ],
      "name": "burnFrom",
      "outputs": [],
      "stateMutability": "nonpayable",
      "type": "function"
    },
    {
      "inputs": [],
      "name": "decimals",
      "outputs": [
        {
          "internalType": "uint8",
          "name": "",
          "type": "uint8"
        }
      ],
      "stateMutability": "view",
      "type": "function"
    },
    {
      "inputs": [
        {
          "internalType": "address",
          "name": "spender",
          "type": "address"
        },
        {
          "internalType": "uint256",
          "name": "subtractedValue",
          "type": "uint256"
        }
      ],
      "name": "decreaseAllowance",
      "outputs": [
        {
          "internalType": "bool",
          "name": "",
          "type": "bool"
        }
      ],
      "stateMutability": "nonpayable",
      "type": "function"
    },
    {
      "inputs": [],
      "name": "distributeLockedSupplyReserves",
      "outputs": [],
      "stateMutability": "nonpayable",
      "type": "function"
    },
    {
      "inputs": [],
      "name": "distributeLockedSupplyTeams",
      "outputs": [],
      "stateMutability": "nonpayable",
      "type": "function"
    },
    {
      "inputs": [
        {
          "internalType": "address",
          "name": "spender",
          "type": "address"
        },
        {
          "internalType": "uint256",
          "name": "addedValue",
          "type": "uint256"
        }
      ],
      "name": "increaseAllowance",
      "outputs": [
        {
          "internalType": "bool",
          "name": "",
          "type": "bool"
        }
      ],
      "stateMutability": "nonpayable",
      "type": "function"
    },
    {
      "inputs": [],
      "name": "initialTime",
      "outputs": [
        {
          "internalType": "uint256",
          "name": "",
          "type": "uint256"
        }
      ],
      "stateMutability": "view",
      "type": "function"
    },
    {
      "inputs": [],
      "name": "lockedSupplyReserves",
      "outputs": [
        {
          "internalType": "uint256",
          "name": "",
          "type": "uint256"
        }
      ],
      "stateMutability": "view",
      "type": "function"
    },
    {
      "inputs": [],
      "name": "lockedSupplyTeam",
      "outputs": [
        {
          "internalType": "uint256",
          "name": "",
          "type": "uint256"
        }
      ],
      "stateMutability": "view",
      "type": "function"
    },
    {
      "inputs": [],
      "name": "name",
      "outputs": [
        {
          "internalType": "string",
          "name": "",
          "type": "string"
        }
      ],
      "stateMutability": "view",
      "type": "function"
    },
    {
      "inputs": [],
      "name": "owner",
      "outputs": [
        {
          "internalType": "address",
          "name": "",
          "type": "address"
        }
      ],
      "stateMutability": "view",
      "type": "function"
    },
    {
      "inputs": [],
      "name": "renounceOwnership",
      "outputs": [],
      "stateMutability": "nonpayable",
      "type": "function"
    },
    {
      "inputs": [],
      "name": "symbol",
      "outputs": [
        {
          "internalType": "string",
          "name": "",
          "type": "string"
        }
      ],
      "stateMutability": "view",
      "type": "function"
    },
    {
      "inputs": [],
      "name": "totalSupply",
      "outputs": [
        {
          "internalType": "uint256",
          "name": "",
          "type": "uint256"
        }
      ],
      "stateMutability": "view",
      "type": "function"
    },
    {
      "inputs": [
        {
          "internalType": "address",
          "name": "to",
          "type": "address"
        },
        {
          "internalType": "uint256",
          "name": "amount",
          "type": "uint256"
        }
      ],
      "name": "transfer",
      "outputs": [
        {
          "internalType": "bool",
          "name": "",
          "type": "bool"
        }
      ],
      "stateMutability": "nonpayable",
      "type": "function"
    },
    {
      "inputs": [
        {
          "internalType": "address",
          "name": "from",
          "type": "address"
        },
        {
          "internalType": "address",
          "name": "to",
          "type": "address"
        },
        {
          "internalType": "uint256",
          "name": "amount",
          "type": "uint256"
        }
      ],
      "name": "transferFrom",
      "outputs": [
        {
          "internalType": "bool",
          "name": "",
          "type": "bool"
        }
      ],
      "stateMutability": "nonpayable",
      "type": "function"
    },
    {
      "inputs": [
        {
          "internalType": "address",
          "name": "newOwner",
          "type": "address"
        }
      ],
      "name": "transferOwnership",
      "outputs": [],
      "stateMutability": "nonpayable",
      "type": "function"
    }
  ],
  "bytecode": "0x6080604052426007553480156200001557600080fd5b506040516200137b3803806200137b833981016040819052620000389162000306565b6040518060400160405280600a8152602001690576172656e45726332360b41b815250604051806040016040528060038152602001622ba92760e91b81525081600390805190602001906200008f92919062000260565b508051620000a590600490602084019062000260565b505050620000c2620000bc6200012260201b60201c565b62000126565b620000d9816a52b7d2dcc80cd2e400000062000178565b620001047390f79bf6eb2c4f870365e785982e1f101e93b9066a18d0bf423c03d8de00000062000178565b6200011b306a39e7139a8c08fa0600000062000178565b506200039c565b3390565b600580546001600160a01b038381166001600160a01b0319831681179093556040519116919082907f8be0079c531659141344cd1fd0a4f28419497f9722a3daafe3b4186f6b6457e090600090a35050565b6001600160a01b038216620001d35760405162461bcd60e51b815260206004820152601f60248201527f45524332303a206d696e7420746f20746865207a65726f206164647265737300604482015260640160405180910390fd5b8060026000828254620001e7919062000338565b90915550506001600160a01b038216600090815260208190526040812080548392906200021690849062000338565b90915550506040518181526001600160a01b038316906000907fddf252ad1be2c89b69c2b068fc378daa952ba7f163c4a11628f55a4df523b3ef9060200160405180910390a35050565b8280546200026e906200035f565b90600052602060002090601f016020900481019282620002925760008555620002dd565b82601f10620002ad57805160ff1916838001178555620002dd565b82800160010185558215620002dd579182015b82811115620002dd578251825591602001919060010190620002c0565b50620002eb929150620002ef565b5090565b5b80821115620002eb5760008155600101620002f0565b6000602082840312156200031957600080fd5b81516001600160a01b03811681146200033157600080fd5b9392505050565b600082198211156200035a57634e487b7160e01b600052601160045260246000fd5b500190565b600181811c908216806200037457607f821691505b602082108114156200039657634e487b7160e01b600052602260045260246000fd5b50919050565b610fcf80620003ac6000396000f3fe608060405234801561001057600080fd5b506004361061014d5760003560e01c806370a08231116100c3578063a457c2d71161007c578063a457c2d714610291578063a9059cbb146102a4578063dd62ed3e146102b7578063f2fde38b146102ca578063f7914e98146102dd578063fee01647146102e657600080fd5b806370a0823114610221578063715018a61461024a57806379cc6790146102525780638da5cb5b1461026557806395d89b41146102805780639ced0e9b1461028857600080fd5b8063313ce56711610115578063313ce567146101c857806338ed46cb146101d757806339509351146101e157806342966c68146101f4578063448ae1ec1461020757806355ba9dc11461021957600080fd5b806304079dfd1461015257806306fdde031461017b578063095ea7b31461019057806318160ddd146101a357806323b872dd146101b5575b600080fd5b60055461016690600160a01b900460ff1681565b60405190151581526020015b60405180910390f35b6101836102f8565b6040516101729190610e83565b61016661019e366004610e40565b61038a565b6002545b604051908152602001610172565b6101666101c3366004610e04565b6103a2565b60405160128152602001610172565b6101df6103c6565b005b6101666101ef366004610e40565b6104c2565b6101df610202366004610e6a565b6104e4565b6101a76a211654585005212800000081565b6101df6104f1565b6101a761022f366004610daf565b6001600160a01b031660009081526020819052604090205490565b6101df6106d6565b6101df610260366004610e40565b6106e8565b6005546040516001600160a01b039091168152602001610172565b610183610701565b6101a760075481565b61016661029f366004610e40565b610710565b6101666102b2366004610e40565b61078b565b6101a76102c5366004610dd1565b610799565b6101df6102d8366004610daf565b6107c4565b6101a760065481565b6101a76a18d0bf423c03d8de00000081565b60606003805461030790610f48565b80601f016020809104026020016040519081016040528092919081815260200182805461033390610f48565b80156103805780601f1061035557610100808354040283529160200191610380565b820191906000526020600020905b81548152906001019060200180831161036357829003601f168201915b5050505050905090565b60003361039881858561083a565b5060019392505050565b6000336103b085828561095f565b6103bb8585856109d3565b506001949350505050565b6103ce610ba1565b6007546103df9063025a7d80610ed8565b4210156104335760405162461bcd60e51b815260206004820152601d60248201527f446973747269627574696f6e206973206e6f7420617661696c61626c6500000060448201526064015b60405180910390fd5b600554600160a01b900460ff16156104835760405162461bcd60e51b8152602060048201526013602482015272105b1c9958591e48191a5cdd1c9a589d5d1959606a1b604482015260640161042a565b6005805460ff60a01b1916600160a01b1790556104c030739965507d1a55bcc2695c58ba16fb37d819b0a4dc6a21165458500521280000006109d3565b565b6000336103988185856104d58383610799565b6104df9190610ed8565b61083a565b6104ee3382610bfb565b50565b6104f9610ba1565b60075461050a906301693b00610ed8565b4210156105595760405162461bcd60e51b815260206004820152601d60248201527f446973747269627574696f6e206973206e6f7420617661696c61626c65000000604482015260640161042a565b6a18d0bf423c03d8de000000600654106105ab5760405162461bcd60e51b8152602060048201526013602482015272105b1c9958591e48191a5cdd1c9a589d5d1959606a1b604482015260640161042a565b60008060008062278d00600754630141ae006105c79190610ed8565b6105d19042610f31565b6105db9190610ef0565b935060078410156105f8576105f184600f610f12565b92506105fd565b606492505b61061183693f870857a3e0e3800000610f12565b91506000600654836106239190610f31565b1161068a5760405162461bcd60e51b815260206004820152603160248201527f4e6f7420656e6f7567682074696d65206861732070617373656420666f722061604482015270103732bb903234b9ba3934b13aba34b7b760791b606482015260840161042a565b6006546106979083610f31565b905080600660008282546106ab9190610ed8565b909155506106d09050307315d34aaf54267db7d7c367839aaf71a00a2c6a65836109d3565b50505050565b6106de610ba1565b6104c06000610d41565b6106f382338361095f565b6106fd8282610bfb565b5050565b60606004805461030790610f48565b6000338161071e8286610799565b90508381101561077e5760405162461bcd60e51b815260206004820152602560248201527f45524332303a2064656372656173656420616c6c6f77616e63652062656c6f77604482015264207a65726f60d81b606482015260840161042a565b6103bb828686840361083a565b6000336103988185856109d3565b6001600160a01b03918216600090815260016020908152604080832093909416825291909152205490565b6107cc610ba1565b6001600160a01b0381166108315760405162461bcd60e51b815260206004820152602660248201527f4f776e61626c653a206e6577206f776e657220697320746865207a65726f206160448201526564647265737360d01b606482015260840161042a565b6104ee81610d41565b6001600160a01b03831661089c5760405162461bcd60e51b8152602060048201526024808201527f45524332303a20617070726f76652066726f6d20746865207a65726f206164646044820152637265737360e01b606482015260840161042a565b6001600160a01b0382166108fd5760405162461bcd60e51b815260206004820152602260248201527f45524332303a20617070726f766520746f20746865207a65726f206164647265604482015261737360f01b606482015260840161042a565b6001600160a01b0383811660008181526001602090815260408083209487168084529482529182902085905590518481527f8c5be1e5ebec7d5bd14f71427d1e84f3dd0314c0f7b2291e5b200ac8c7c3b92591015b60405180910390a3505050565b600061096b8484610799565b905060001981146106d057818110156109c65760405162461bcd60e51b815260206004820152601d60248201527f45524332303a20696e73756666696369656e7420616c6c6f77616e6365000000604482015260640161042a565b6106d0848484840361083a565b6001600160a01b038316610a375760405162461bcd60e51b815260206004820152602560248201527f45524332303a207472616e736665722066726f6d20746865207a65726f206164604482015264647265737360d81b606482015260840161042a565b6001600160a01b038216610a995760405162461bcd60e51b815260206004820152602360248201527f45524332303a207472616e7366657220746f20746865207a65726f206164647260448201526265737360e81b606482015260840161042a565b6001600160a01b03831660009081526020819052604090205481811015610b115760405162461bcd60e51b815260206004820152602660248201527f45524332303a207472616e7366657220616d6f756e7420657863656564732062604482015265616c616e636560d01b606482015260840161042a565b6001600160a01b03808516600090815260208190526040808220858503905591851681529081208054849290610b48908490610ed8565b92505081905550826001600160a01b0316846001600160a01b03167fddf252ad1be2c89b69c2b068fc378daa952ba7f163c4a11628f55a4df523b3ef84604051610b9491815260200190565b60405180910390a36106d0565b6005546001600160a01b031633146104c05760405162461bcd60e51b815260206004820181905260248201527f4f776e61626c653a2063616c6c6572206973206e6f7420746865206f776e6572604482015260640161042a565b6001600160a01b038216610c5b5760405162461bcd60e51b815260206004820152602160248201527f45524332303a206275726e2066726f6d20746865207a65726f206164647265736044820152607360f81b606482015260840161042a565b6001600160a01b03821660009081526020819052604090205481811015610ccf5760405162461bcd60e51b815260206004820152602260248201527f45524332303a206275726e20616d6f756e7420657863656564732062616c616e604482015261636560f01b606482015260840161042a565b6001600160a01b0383166000908152602081905260408120838303905560028054849290610cfe908490610f31565b90915550506040518281526000906001600160a01b038516907fddf252ad1be2c89b69c2b068fc378daa952ba7f163c4a11628f55a4df523b3ef90602001610952565b600580546001600160a01b038381166001600160a01b0319831681179093556040519116919082907f8be0079c531659141344cd1fd0a4f28419497f9722a3daafe3b4186f6b6457e090600090a35050565b80356001600160a01b0381168114610daa57600080fd5b919050565b600060208284031215610dc157600080fd5b610dca82610d93565b9392505050565b60008060408385031215610de457600080fd5b610ded83610d93565b9150610dfb60208401610d93565b90509250929050565b600080600060608486031215610e1957600080fd5b610e2284610d93565b9250610e3060208501610d93565b9150604084013590509250925092565b60008060408385031215610e5357600080fd5b610e5c83610d93565b946020939093013593505050565b600060208284031215610e7c57600080fd5b5035919050565b600060208083528351808285015260005b81811015610eb057858101830151858201604001528201610e94565b81811115610ec2576000604083870101525b50601f01601f1916929092016040019392505050565b60008219821115610eeb57610eeb610f83565b500190565b600082610f0d57634e487b7160e01b600052601260045260246000fd5b500490565b6000816000190483118215151615610f2c57610f2c610f83565b500290565b600082821015610f4357610f43610f83565b500390565b600181811c90821680610f5c57607f821691505b60208210811415610f7d57634e487b7160e01b600052602260045260246000fd5b50919050565b634e487b7160e01b600052601160045260246000fdfea2646970667358221220c06840d58d28505c201fed7e78747ff9eed51275d5fdebaf0ac22f9f8a5c629064736f6c63430008070033",
  "linkReferences": {},
  "deployedLinkReferences": {}
}