{
  "_format": "hh-sol-artifact-1",
  "contractName": "Waren",
  "sourceName": "contracts/Waren.sol",
  "abi": [
    {
      "inputs": [
        {
          "internalType": "bytes32",
          "name": "_merkleRoot",
          "type": "bytes32"
        },
        {
          "internalType": "string",
          "name": "_baseURI",
          "type": "string"
        }
      ],
      "stateMutability": "nonpayable",
      "type": "constructor"
    },
    {
      "anonymous": false,
      "inputs": [
        {
          "indexed": true,
          "internalType": "address",
          "name": "account",
          "type": "address"
        },
        {
          "indexed": true,
          "internalType": "address",
          "name": "operator",
          "type": "address"
        },
        {
          "indexed": false,
          "internalType": "bool",
          "name": "approved",
          "type": "bool"
        }
      ],
      "name": "ApprovalForAll",
      "type": "event"
    },
    {
      "anonymous": false,
      "inputs": [
        {
          "indexed": true,
          "internalType": "address",
          "name": "previousOwner",
          "type": "address"
        },
        {
          "indexed": true,
          "internalType": "address",
          "name": "newOwner",
          "type": "address"
        }
      ],
      "name": "OwnershipTransferred",
      "type": "event"
    },
    {
      "anonymous": false,
      "inputs": [
        {
          "indexed": false,
          "internalType": "uint8",
          "name": "_step",
          "type": "uint8"
        }
      ],
      "name": "StepChanged",
      "type": "event"
    },
    {
      "anonymous": false,
      "inputs": [
        {
          "indexed": true,
          "internalType": "address",
          "name": "operator",
          "type": "address"
        },
        {
          "indexed": true,
          "internalType": "address",
          "name": "from",
          "type": "address"
        },
        {
          "indexed": true,
          "internalType": "address",
          "name": "to",
          "type": "address"
        },
        {
          "indexed": false,
          "internalType": "uint256[]",
          "name": "ids",
          "type": "uint256[]"
        },
        {
          "indexed": false,
          "internalType": "uint256[]",
          "name": "values",
          "type": "uint256[]"
        }
      ],
      "name": "TransferBatch",
      "type": "event"
    },
    {
      "anonymous": false,
      "inputs": [
        {
          "indexed": true,
          "internalType": "address",
          "name": "operator",
          "type": "address"
        },
        {
          "indexed": true,
          "internalType": "address",
          "name": "from",
          "type": "address"
        },
        {
          "indexed": true,
          "internalType": "address",
          "name": "to",
          "type": "address"
        },
        {
          "indexed": false,
          "internalType": "uint256",
          "name": "id",
          "type": "uint256"
        },
        {
          "indexed": false,
          "internalType": "uint256",
          "name": "value",
          "type": "uint256"
        }
      ],
      "name": "TransferSingle",
      "type": "event"
    },
    {
      "anonymous": false,
      "inputs": [
        {
          "indexed": false,
          "internalType": "string",
          "name": "value",
          "type": "string"
        },
        {
          "indexed": true,
          "internalType": "uint256",
          "name": "id",
          "type": "uint256"
        }
      ],
      "name": "URI",
      "type": "event"
    },
    {
      "inputs": [
        {
          "internalType": "address",
          "name": "account",
          "type": "address"
        },
        {
          "internalType": "uint256",
          "name": "id",
          "type": "uint256"
        }
      ],
      "name": "balanceOf",
      "outputs": [
        {
          "internalType": "uint256",
          "name": "",
          "type": "uint256"
        }
      ],
      "stateMutability": "view",
      "type": "function"
    },
    {
      "inputs": [
        {
          "internalType": "address[]",
          "name": "accounts",
          "type": "address[]"
        },
        {
          "internalType": "uint256[]",
          "name": "ids",
          "type": "uint256[]"
        }
      ],
      "name": "balanceOfBatch",
      "outputs": [
        {
          "internalType": "uint256[]",
          "name": "",
          "type": "uint256[]"
        }
      ],
      "stateMutability": "view",
      "type": "function"
    },
    {
      "inputs": [],
      "name": "baseURI",
      "outputs": [
        {
          "internalType": "string",
          "name": "",
          "type": "string"
        }
      ],
      "stateMutability": "view",
      "type": "function"
    },
    {
      "inputs": [],
      "name": "getLatestPrice",
      "outputs": [
        {
          "internalType": "int256",
          "name": "",
          "type": "int256"
        }
      ],
      "stateMutability": "view",
      "type": "function"
    },
    {
      "inputs": [
        {
          "internalType": "address",
          "name": "_to",
          "type": "address"
        },
        {
          "internalType": "uint16",
          "name": "_quantity",
          "type": "uint16"
        },
        {
          "internalType": "uint8",
          "name": "_type",
          "type": "uint8"
        }
      ],
      "name": "gift",
      "outputs": [],
      "stateMutability": "nonpayable",
      "type": "function"
    },
    {
      "inputs": [
        {
          "internalType": "uint8",
          "name": "_quantity",
          "type": "uint8"
        }
      ],
      "name": "goldPassMint",
      "outputs": [],
      "stateMutability": "payable",
      "type": "function"
    },
    {
      "inputs": [
        {
          "internalType": "uint8",
          "name": "_quantity",
          "type": "uint8"
        }
      ],
      "name": "goldPassMintUSDT",
      "outputs": [],
      "stateMutability": "nonpayable",
      "type": "function"
    },
    {
      "inputs": [],
      "name": "goldPassPrice",
      "outputs": [
        {
          "internalType": "uint256",
          "name": "",
          "type": "uint256"
        }
      ],
      "stateMutability": "view",
      "type": "function"
    },
    {
      "inputs": [
        {
          "internalType": "address",
          "name": "account",
          "type": "address"
        },
        {
          "internalType": "address",
          "name": "operator",
          "type": "address"
        }
      ],
      "name": "isApprovedForAll",
      "outputs": [
        {
          "internalType": "bool",
          "name": "",
          "type": "bool"
        }
      ],
      "stateMutability": "view",
      "type": "function"
    },
    {
      "inputs": [],
      "name": "nextNFT1",
      "outputs": [
        {
          "internalType": "uint8",
          "name": "",
          "type": "uint8"
        }
      ],
      "stateMutability": "view",
      "type": "function"
    },
    {
      "inputs": [],
      "name": "nextNFT2",
      "outputs": [
        {
          "internalType": "uint8",
          "name": "",
          "type": "uint8"
        }
      ],
      "stateMutability": "view",
      "type": "function"
    },
    {
      "inputs": [],
      "name": "nextNFT3",
      "outputs": [
        {
          "internalType": "uint16",
          "name": "",
          "type": "uint16"
        }
      ],
      "stateMutability": "view",
      "type": "function"
    },
    {
      "inputs": [],
      "name": "nextNFT4",
      "outputs": [
        {
          "internalType": "uint24",
          "name": "",
          "type": "uint24"
        }
      ],
      "stateMutability": "view",
      "type": "function"
    },
    {
      "inputs": [],
      "name": "owner",
      "outputs": [
        {
          "internalType": "address",
          "name": "",
          "type": "address"
        }
      ],
      "stateMutability": "view",
      "type": "function"
    },
    {
      "inputs": [],
      "name": "paused",
      "outputs": [
        {
          "internalType": "bool",
          "name": "",
          "type": "bool"
        }
      ],
      "stateMutability": "view",
      "type": "function"
    },
    {
      "inputs": [
        {
          "internalType": "uint8",
          "name": "_quantity",
          "type": "uint8"
        }
      ],
      "name": "publicSaleMint1",
      "outputs": [],
      "stateMutability": "payable",
      "type": "function"
    },
    {
      "inputs": [
        {
          "internalType": "uint8",
          "name": "_quantity",
          "type": "uint8"
        }
      ],
      "name": "publicSaleMint1USDT",
      "outputs": [],
      "stateMutability": "nonpayable",
      "type": "function"
    },
    {
      "inputs": [
        {
          "internalType": "uint8",
          "name": "_quantity",
          "type": "uint8"
        }
      ],
      "name": "publicSaleMint2",
      "outputs": [],
      "stateMutability": "payable",
      "type": "function"
    },
    {
      "inputs": [
        {
          "internalType": "uint8",
          "name": "_quantity",
          "type": "uint8"
        }
      ],
      "name": "publicSaleMint2USDT",
      "outputs": [],
      "stateMutability": "nonpayable",
      "type": "function"
    },
    {
      "inputs": [],
      "name": "publicSalePrice1",
      "outputs": [
        {
          "internalType": "uint256",
          "name": "",
          "type": "uint256"
        }
      ],
      "stateMutability": "view",
      "type": "function"
    },
    {
      "inputs": [],
      "name": "publicSalePrice2",
      "outputs": [
        {
          "internalType": "uint256",
          "name": "",
          "type": "uint256"
        }
      ],
      "stateMutability": "view",
      "type": "function"
    },
    {
      "inputs": [],
      "name": "renounceOwnership",
      "outputs": [],
      "stateMutability": "nonpayable",
      "type": "function"
    },
    {
      "inputs": [
        {
          "internalType": "address",
          "name": "from",
          "type": "address"
        },
        {
          "internalType": "address",
          "name": "to",
          "type": "address"
        },
        {
          "internalType": "uint256[]",
          "name": "ids",
          "type": "uint256[]"
        },
        {
          "internalType": "uint256[]",
          "name": "amounts",
          "type": "uint256[]"
        },
        {
          "internalType": "bytes",
          "name": "data",
          "type": "bytes"
        }
      ],
      "name": "safeBatchTransferFrom",
      "outputs": [],
      "stateMutability": "nonpayable",
      "type": "function"
    },
    {
      "inputs": [
        {
          "internalType": "address",
          "name": "from",
          "type": "address"
        },
        {
          "internalType": "address",
          "name": "to",
          "type": "address"
        },
        {
          "internalType": "uint256",
          "name": "id",
          "type": "uint256"
        },
        {
          "internalType": "uint256",
          "name": "amount",
          "type": "uint256"
        },
        {
          "internalType": "bytes",
          "name": "data",
          "type": "bytes"
        }
      ],
      "name": "safeTransferFrom",
      "outputs": [],
      "stateMutability": "nonpayable",
      "type": "function"
    },
    {
      "inputs": [],
      "name": "sellingStep",
      "outputs": [
        {
          "internalType": "enum Waren.Step",
          "name": "",
          "type": "uint8"
        }
      ],
      "stateMutability": "view",
      "type": "function"
    },
    {
      "inputs": [
        {
          "internalType": "address",
          "name": "operator",
          "type": "address"
        },
        {
          "internalType": "bool",
          "name": "approved",
          "type": "bool"
        }
      ],
      "name": "setApprovalForAll",
      "outputs": [],
      "stateMutability": "nonpayable",
      "type": "function"
    },
    {
      "inputs": [
        {
          "internalType": "string",
          "name": "_newBaseURI",
          "type": "string"
        }
      ],
      "name": "setBaseUri",
      "outputs": [],
      "stateMutability": "nonpayable",
      "type": "function"
    },
    {
      "inputs": [
        {
          "internalType": "bytes32",
          "name": "_merkleRoot",
          "type": "bytes32"
        }
      ],
      "name": "setMerkleRoot",
      "outputs": [],
      "stateMutability": "nonpayable",
      "type": "function"
    },
    {
      "inputs": [],
      "name": "setPaused",
      "outputs": [],
      "stateMutability": "nonpayable",
      "type": "function"
    },
    {
      "inputs": [
        {
          "internalType": "uint8",
          "name": "_step",
          "type": "uint8"
        }
      ],
      "name": "setStep",
      "outputs": [],
      "stateMutability": "nonpayable",
      "type": "function"
    },
    {
      "inputs": [
        {
          "internalType": "bytes4",
          "name": "interfaceId",
          "type": "bytes4"
        }
      ],
      "name": "supportsInterface",
      "outputs": [
        {
          "internalType": "bool",
          "name": "",
          "type": "bool"
        }
      ],
      "stateMutability": "view",
      "type": "function"
    },
    {
      "inputs": [
        {
          "internalType": "address",
          "name": "newOwner",
          "type": "address"
        }
      ],
      "name": "transferOwnership",
      "outputs": [],
      "stateMutability": "nonpayable",
      "type": "function"
    },
    {
      "inputs": [
        {
          "internalType": "uint256",
          "name": "_tokenId",
          "type": "uint256"
        }
      ],
      "name": "uri",
      "outputs": [
        {
          "internalType": "string",
          "name": "",
          "type": "string"
        }
      ],
      "stateMutability": "view",
      "type": "function"
    },
    {
      "inputs": [
        {
          "internalType": "bytes32[]",
          "name": "_proof",
          "type": "bytes32[]"
        },
        {
          "internalType": "uint8",
          "name": "_quantity",
          "type": "uint8"
        }
      ],
      "name": "whitelistSaleMint",
      "outputs": [],
      "stateMutability": "payable",
      "type": "function"
    },
    {
      "inputs": [
        {
          "internalType": "bytes32[]",
          "name": "_proof",
          "type": "bytes32[]"
        },
        {
          "internalType": "uint8",
          "name": "_quantity",
          "type": "uint8"
        }
      ],
      "name": "whitelistSaleMintUSDT",
      "outputs": [],
      "stateMutability": "nonpayable",
      "type": "function"
    },
    {
      "inputs": [],
      "name": "whitelistSalePrice",
      "outputs": [
        {
          "internalType": "uint256",
          "name": "",
          "type": "uint256"
        }
      ],
      "stateMutability": "view",
      "type": "function"
    }
  ],
  "bytecode": "0x6080604052600480546001600160a01b03199081167355d398326f99059ff775485246999027b31979551790915560058054821673e4a9b8e3543814cdc309a057407a4327362341e617905560068054909116730567f2323251f0aab15c8dfb1967e4e8a7d42aee1790553480156200007757600080fd5b5060405162003e5d38038062003e5d8339810160408190526200009a91620001e4565b80620000a633620000d5565b620000b18162000125565b5060088290558051620000cc9060079060208401906200013e565b50505062000321565b600080546001600160a01b038381166001600160a01b0319831681178455604051919092169283917f8be0079c531659141344cd1fd0a4f28419497f9722a3daafe3b4186f6b6457e09190a35050565b80516200013a9060039060208401906200013e565b5050565b8280546200014c90620002ce565b90600052602060002090601f016020900481019282620001705760008555620001bb565b82601f106200018b57805160ff1916838001178555620001bb565b82800160010185558215620001bb579182015b82811115620001bb5782518255916020019190600101906200019e565b50620001c9929150620001cd565b5090565b5b80821115620001c95760008155600101620001ce565b60008060408385031215620001f857600080fd5b8251602080850151919350906001600160401b03808211156200021a57600080fd5b818601915086601f8301126200022f57600080fd5b8151818111156200024457620002446200030b565b604051601f8201601f19908116603f011681019083821181831017156200026f576200026f6200030b565b8160405282815289868487010111156200028857600080fd5b600093505b82841015620002ac57848401860151818501870152928501926200028d565b82841115620002be5760008684830101525b8096505050505050509250929050565b600181811c90821680620002e357607f821691505b602082108114156200030557634e487b7160e01b600052602260045260246000fd5b50919050565b634e487b7160e01b600052604160045260246000fd5b613b2c80620003316000396000f3fe60806040526004361061020e5760003560e01c80637cb6475911610118578063c57b5e07116100a0578063e985e9c51161006f578063e985e9c5146105d4578063f242432a1461061d578063f2fde38b1461063d578063f8b89dfb1461065d578063fca2ee351461067d57600080fd5b8063c57b5e0714610551578063cbc5da591461053b578063cbccefb214610571578063dc7d131c1461059f57600080fd5b806398dd5fd1116100e757806398dd5fd1146104d2578063a0bcfc7f146104e5578063a22cb46514610505578063a291504214610525578063c11732501461053b57600080fd5b80637cb647591461046257806385ffa022146104825780638da5cb5b146104955780638e15f473146104bd57600080fd5b80632e98d93f1161019b5780634e1273f41161016a5780634e1273f4146103d75780635132bda2146104045780635c975abb146104175780636c0360eb14610438578063715018a61461044d57600080fd5b80632e98d93f146103615780632eb2c2d61461038257806335fa502d146103a257806337a66d85146103c257600080fd5b8063082ff47d116101e2578063082ff47d146102cb5780630e89341c146102eb578063188adcd9146103185780631b7eefd21461033857806328e7b1f11461034b57600080fd5b8062fdd58e1461021357806301ffc9a71461024657806302539f0d1461027657806304c8dcfc146102a9575b600080fd5b34801561021f57600080fd5b5061023361022e3660046130d5565b6106b4565b6040519081526020015b60405180910390f35b34801561025257600080fd5b50610266610261366004613281565b61074c565b604051901515815260200161023d565b34801561028257600080fd5b5060065461029790600160a81b900460ff1681565b60405160ff909116815260200161023d565b3480156102b557600080fd5b506102c96102c4366004613089565b61079e565b005b3480156102d757600080fd5b506102c96102e636600461331d565b610b42565b3480156102f757600080fd5b5061030b610306366004613268565b610ce0565b60405161023d91906135da565b34801561032457600080fd5b506102c96103333660046131d0565b610d64565b6102c961034636600461331d565b610ff4565b34801561035757600080fd5b506102336107d081565b34801561036d57600080fd5b5060065461029790600160b01b900460ff1681565b34801561038e57600080fd5b506102c961039d366004612f43565b6111df565b3480156103ae57600080fd5b506102c96103bd36600461331d565b61121c565b3480156103ce57600080fd5b506102c9611347565b3480156103e357600080fd5b506103f76103f23660046130ff565b611370565b60405161023d919061357a565b6102c961041236600461331d565b61149a565b34801561042357600080fd5b5060065461026690600160e01b900460ff1681565b34801561044457600080fd5b5061030b61164a565b34801561045957600080fd5b506102c96116d8565b34801561046e57600080fd5b506102c961047d366004613268565b6116ec565b6102c96104903660046131d0565b6116f9565b3480156104a157600080fd5b506000546040516001600160a01b03909116815260200161023d565b3480156104c957600080fd5b5061023361197b565b6102c96104e036600461331d565b611a19565b3480156104f157600080fd5b506102c96105003660046132bb565b611c13565b34801561051157600080fd5b506102c9610520366004613052565b611c32565b34801561053157600080fd5b5061023361271081565b34801561054757600080fd5b5061023361012c81565b34801561055d57600080fd5b506102c961056c36600461331d565b611c3d565b34801561057d57600080fd5b5060065461059290600160a01b900460ff1681565b60405161023d91906135b2565b3480156105ab57600080fd5b506006546105c190600160b81b900461ffff1681565b60405161ffff909116815260200161023d565b3480156105e057600080fd5b506102666105ef366004612f10565b6001600160a01b03918216600090815260026020908152604080832093909416825291909152205460ff1690565b34801561062957600080fd5b506102c9610638366004612fed565b611d75565b34801561064957600080fd5b506102c9610658366004612ef5565b611dab565b34801561066957600080fd5b506102c961067836600461331d565b611e21565b34801561068957600080fd5b506006546106a090600160c81b900462ffffff1681565b60405162ffffff909116815260200161023d565b60006001600160a01b0383166107245760405162461bcd60e51b815260206004820152602a60248201527f455243313135353a2061646472657373207a65726f206973206e6f742061207660448201526930b634b21037bbb732b960b11b60648201526084015b60405180910390fd5b5060009081526001602090815260408083206001600160a01b03949094168352929052205490565b60006001600160e01b03198216636cdb3d1360e11b148061077d57506001600160e01b031982166303a24d0760e21b145b8061079857506301ffc9a760e01b6001600160e01b03198316145b92915050565b6107a6611e9e565b60008261ffff16116107eb5760405162461bcd60e51b815260206004820152600e60248201526d5175616e74697479206d696e203160901b604482015260640161071b565b60008160ff16118015610801575060058160ff16105b6108415760405162461bcd60e51b815260206004820152601160248201527013919508191bd95cdb89dd08195e1a5cdd607a1b604482015260640161071b565b60ff81166001141561090957600654607d90610868908490600160a81b900460ff16613830565b61ffff16111561088a5760405162461bcd60e51b815260040161071b906137a2565b81600660158282829054906101000a900460ff166108a8919061388c565b92506101000a81548160ff021916908360ff16021790555061090983600160ff168461ffff166040516020016108f59070576172656e204e4654205479706520233160781b815260110190565b604051602081830303815290604052611ef8565b60ff8116600214156109bd5760065460c890610930908490600160b01b900460ff16613830565b61ffff1611156109525760405162461bcd60e51b815260040161071b906137a2565b81600660168282829054906101000a900460ff16610970919061388c565b92506101000a81548160ff021916908360ff1602179055506109bd83600260ff168461ffff166040516020016108f590702bb0b932b71027232a102a3cb83290119960791b815260110190565b60ff811660031415610a7657600654611482906109e6908490600160b81b900461ffff16613830565b61ffff161115610a085760405162461bcd60e51b815260040161071b906137a2565b81600660178282829054906101000a900461ffff16610a279190613830565b92506101000a81548161ffff021916908361ffff160217905550610a7683600360ff168461ffff166040516020016108f59070576172656e204e4654205479706520233360781b815260110190565b60ff811660041415610b3d576006546201528b90610aa59061ffff851690600160c81b900462ffffff16613856565b62ffffff161115610ac85760405162461bcd60e51b815260040161071b906137a2565b8161ffff16600660198282829054906101000a900462ffffff16610aec9190613856565b92506101000a81548162ffffff021916908362ffffff160217905550610b3d83600460ff168461ffff166040516020016108f5907015d85c995b8813919508151e5c194808cd607a1b815260110190565b505050565b323314610b615760405162461bcd60e51b815260040161071b90613684565b6003600654600160a01b900460ff166003811115610b8157610b816139ea565b14610bc95760405162461bcd60e51b81526020600482015260186024820152775075626c69632073616c652032206e6f742061637469766560401b604482015260640161071b565b60008160ff16118015610bdf575060108160ff16105b610bfb5760405162461bcd60e51b815260040161071b906136dc565b6006546201528b90610c1d9060ff841690600160c81b900462ffffff16613856565b62ffffff161115610c405760405162461bcd60e51b815260040161071b906137a2565b610c6a60ff8216610c5b61012c670de0b6b3a76400006138c5565b610c6591906138c5565b61200e565b8060ff16600660198282829054906101000a900462ffffff16610c8d9190613856565b92506101000a81548162ffffff021916908362ffffff160217905550610cdd33600460ff168360ff166040516020016108f5907015d85c995b8813919508151e5c194808cd607a1b815260110190565b50565b6060600082118015610cf25750600582105b610d325760405162461bcd60e51b815260206004820152601160248201527013919508191bd95cdb89dd08195e1a5cdd607a1b604482015260640161071b565b6007610d3d836120c1565b604051602001610d4e929190613427565b6040516020818303038152906040529050919050565b323314610d835760405162461bcd60e51b815260040161071b90613684565b6001600654600160a01b900460ff166003811115610da357610da36139ea565b14610dec5760405162461bcd60e51b815260206004820152601960248201527857686974656c6973742073616c65206e6f742061637469766560381b604482015260640161071b565b610df73384846121c7565b610e355760405162461bcd60e51b815260206004820152600f60248201526e139bdd081dda1a5d195b1a5cdd1959608a1b604482015260640161071b565b60008160ff16118015610e4b575060068160ff16105b610e905760405162461bcd60e51b81526020600482015260166024820152755175616e74697479206265747765656e20312026203560501b604482015260640161071b565b33600090815260096020526040902054600590610eb190839060ff1661388c565b60ff161115610ef95760405162461bcd60e51b815260206004820152601460248201527313585e080d48139195081c195c881dd85b1b195d60621b604482015260640161071b565b60065460c890610f14908390600160b01b900460ff1661388c565b60ff161115610f355760405162461bcd60e51b815260040161071b906137a2565b610f5060ff8216610c5b61012c670de0b6b3a76400006138c5565b3360009081526009602052604081208054839290610f7290849060ff1661388c565b92506101000a81548160ff021916908360ff16021790555080600660168282829054906101000a900460ff16610fa8919061388c565b92506101000a81548160ff021916908360ff160217905550610b3d33600260ff168360ff166040516020016108f590702bb0b932b71027232a102a3cb83290119960791b815260110190565b3233146110135760405162461bcd60e51b815260040161071b90613684565b6000600654600160a01b900460ff166003811115611033576110336139ea565b14156110785760405162461bcd60e51b8152602060048201526014602482015273476f6c642050617373206e6f742061637469766560601b604482015260640161071b565b60008160ff1611801561108e575060108160ff16105b6110aa5760405162461bcd60e51b815260040161071b906136dc565b600654607d906110c5908390600160a81b900460ff1661388c565b60ff1611156110e65760405162461bcd60e51b815260040161071b906137a2565b6110ee61197b565b6110fd61271060ff84166138c5565b611112906a52b7d2dcc80cd2e40000006138c5565b61111c91906138b1565b34101561113b5760405162461bcd60e51b815260040161071b906136b2565b6005546040516001600160a01b03909116904780156108fc02916000818181858888f19350505050158015611174573d6000803e3d6000fd5b5080600660158282829054906101000a900460ff16611193919061388c565b92506101000a81548160ff021916908360ff160217905550610cdd33600160ff168360ff166040516020016108f59070576172656e204e4654205479706520233160781b815260110190565b600654600160e01b900460ff166112085760405162461bcd60e51b815260040161071b906137c4565b6112158585858585612252565b5050505050565b32331461123b5760405162461bcd60e51b815260040161071b90613684565b6000600654600160a01b900460ff16600381111561125b5761125b6139ea565b14156112a05760405162461bcd60e51b8152602060048201526014602482015273476f6c642050617373206e6f742061637469766560601b604482015260640161071b565b60008160ff161180156112b6575060108160ff16105b6112d25760405162461bcd60e51b815260040161071b906136dc565b600654607d906112ed908390600160a81b900460ff1661388c565b60ff16111561130e5760405162461bcd60e51b815260040161071b906137a2565b61132960ff8216610c5b612710670de0b6b3a76400006138c5565b80600660158282829054906101000a900460ff16611193919061388c565b61134f611e9e565b6006805460ff60e01b198116600160e01b9182900460ff1615909102179055565b606081518351146113d55760405162461bcd60e51b815260206004820152602960248201527f455243313135353a206163636f756e747320616e6420696473206c656e677468604482015268040dad2e6dac2e8c6d60bb1b606482015260840161071b565b6000835167ffffffffffffffff8111156113f1576113f1613a16565b60405190808252806020026020018201604052801561141a578160200160208202803683370190505b50905060005b84518110156114925761146585828151811061143e5761143e613a00565b602002602001015185838151811061145857611458613a00565b60200260200101516106b4565b82828151811061147757611477613a00565b602090810291909101015261148b8161398f565b9050611420565b509392505050565b3233146114b95760405162461bcd60e51b815260040161071b90613684565b6003600654600160a01b900460ff1660038111156114d9576114d96139ea565b146115215760405162461bcd60e51b81526020600482015260186024820152775075626c69632073616c652032206e6f742061637469766560401b604482015260640161071b565b60008160ff16118015611537575060108160ff16105b6115535760405162461bcd60e51b815260040161071b906136dc565b6006546201528b906115759060ff841690600160c81b900462ffffff16613856565b62ffffff1611156115985760405162461bcd60e51b815260040161071b906137a2565b6115a061197b565b6115af61012c60ff84166138c5565b6115c4906a52b7d2dcc80cd2e40000006138c5565b6115ce91906138b1565b3410156115ed5760405162461bcd60e51b815260040161071b906136b2565b6005546040516001600160a01b03909116904780156108fc02916000818181858888f19350505050158015611626573d6000803e3d6000fd5b508060ff16600660198282829054906101000a900462ffffff16610c8d9190613856565b6007805461165790613927565b80601f016020809104026020016040519081016040528092919081815260200182805461168390613927565b80156116d05780601f106116a5576101008083540402835291602001916116d0565b820191906000526020600020905b8154815290600101906020018083116116b357829003601f168201915b505050505081565b6116e0611e9e565b6116ea6000612297565b565b6116f4611e9e565b600855565b3233146117185760405162461bcd60e51b815260040161071b90613684565b6001600654600160a01b900460ff166003811115611738576117386139ea565b146117815760405162461bcd60e51b815260206004820152601960248201527857686974656c6973742073616c65206e6f742061637469766560381b604482015260640161071b565b61178c3384846121c7565b6117ca5760405162461bcd60e51b815260206004820152600f60248201526e139bdd081dda1a5d195b1a5cdd1959608a1b604482015260640161071b565b60008160ff161180156117e0575060068160ff16105b6118255760405162461bcd60e51b81526020600482015260166024820152755175616e74697479206265747765656e20312026203560501b604482015260640161071b565b3360009081526009602052604090205460059061184690839060ff1661388c565b60ff16111561188e5760405162461bcd60e51b815260206004820152601460248201527313585e080d48139195081c195c881dd85b1b195d60621b604482015260640161071b565b60065460c8906118a9908390600160b01b900460ff1661388c565b60ff1611156118ca5760405162461bcd60e51b815260040161071b906137a2565b6118d261197b565b6118e161012c60ff84166138c5565b6118f6906a52b7d2dcc80cd2e40000006138c5565b61190091906138b1565b34101561191f5760405162461bcd60e51b815260040161071b906136b2565b6005546040516001600160a01b03909116904780156108fc02916000818181858888f19350505050158015611958573d6000803e3d6000fd5b503360009081526009602052604081208054839290610f7290849060ff1661388c565b600080600080600080600660009054906101000a90046001600160a01b03166001600160a01b031663feaf968c6040518163ffffffff1660e01b815260040160a06040518083038186803b1580156119d257600080fd5b505afa1580156119e6573d6000803e3d6000fd5b505050506040513d601f19601f82011682018060405250810190611a0a9190613338565b50919998505050505050505050565b323314611a385760405162461bcd60e51b815260040161071b90613684565b6002600654600160a01b900460ff166003811115611a5857611a586139ea565b14611aa05760405162461bcd60e51b81526020600482015260186024820152775075626c69632073616c652031206e6f742061637469766560401b604482015260640161071b565b60008160ff16118015611ab6575060108160ff16105b611ad25760405162461bcd60e51b815260040161071b906136dc565b60065461148290611af29060ff841690600160b81b900461ffff16613830565b61ffff161115611b145760405162461bcd60e51b815260040161071b906137a2565b611b1c61197b565b611b2b6107d060ff84166138c5565b611b40906a52b7d2dcc80cd2e40000006138c5565b611b4a91906138b1565b341015611b695760405162461bcd60e51b815260040161071b906136b2565b6005546040516001600160a01b03909116904780156108fc02916000818181858888f19350505050158015611ba2573d6000803e3d6000fd5b508060ff16600660178282829054906101000a900461ffff16611bc59190613830565b92506101000a81548161ffff021916908361ffff160217905550610cdd33600360ff168360ff166040516020016108f59070576172656e204e4654205479706520233360781b815260110190565b611c1b611e9e565b8051611c2e906007906020840190612d20565b5050565b611c2e3383836122e7565b323314611c5c5760405162461bcd60e51b815260040161071b90613684565b6002600654600160a01b900460ff166003811115611c7c57611c7c6139ea565b14611cc45760405162461bcd60e51b81526020600482015260186024820152775075626c69632073616c652031206e6f742061637469766560401b604482015260640161071b565b60008160ff16118015611cda575060108160ff16105b611cf65760405162461bcd60e51b815260040161071b906136dc565b60065461148290611d169060ff841690600160b81b900461ffff16613830565b61ffff161115611d385760405162461bcd60e51b815260040161071b906137a2565b611d5360ff8216610c5b6107d0670de0b6b3a76400006138c5565b8060ff16600660178282829054906101000a900461ffff16611bc59190613830565b600654600160e01b900460ff16611d9e5760405162461bcd60e51b815260040161071b906137c4565b61121585858585856123c8565b611db3611e9e565b6001600160a01b038116611e185760405162461bcd60e51b815260206004820152602660248201527f4f776e61626c653a206e6577206f776e657220697320746865207a65726f206160448201526564647265737360d01b606482015260840161071b565b610cdd81612297565b611e29611e9e565b8060ff166003811115611e3e57611e3e6139ea565b6006805460ff60a01b1916600160a01b836003811115611e6057611e606139ea565b021790555060405160ff821681527fdf9b689ccccd0af9869ac3bd73ef3efb636ade663455d33b9c1e46aa8802f75e9060200160405180910390a150565b6000546001600160a01b031633146116ea5760405162461bcd60e51b815260206004820181905260248201527f4f776e61626c653a2063616c6c6572206973206e6f7420746865206f776e6572604482015260640161071b565b6001600160a01b038416611f585760405162461bcd60e51b815260206004820152602160248201527f455243313135353a206d696e7420746f20746865207a65726f206164647265736044820152607360f81b606482015260840161071b565b336000611f648561240d565b90506000611f718561240d565b905060008681526001602090815260408083206001600160a01b038b16845290915281208054879290611fa5908490613874565b909155505060408051878152602081018790526001600160a01b03808a1692600092918716917fc3d58168c5ae7397731d063d5bbf3d657854427343f4c083240f7aacaa2d0f62910160405180910390a461200583600089898989612460565b50505050505050565b600454612026906001600160a01b03163330846125cb565b600554600480546040516370a0823160e01b81523092810192909252610cdd926001600160a01b03908116929116906370a082319060240160206040518083038186803b15801561207657600080fd5b505afa15801561208a573d6000803e3d6000fd5b505050506040513d601f19601f820116820180604052508101906120ae9190613304565b6004546001600160a01b0316919061263c565b6060816120e55750506040805180820190915260018152600360fc1b602082015290565b8160005b811561210f57806120f98161398f565b91506121089050600a836138b1565b91506120e9565b60008167ffffffffffffffff81111561212a5761212a613a16565b6040519080825280601f01601f191660200182016040528015612154576020820181803683370190505b5090505b84156121bf576121696001836138e4565b9150612176600a866139aa565b612181906030613874565b60f81b81838151811061219657612196613a00565b60200101906001600160f81b031916908160001a9053506121b8600a866138b1565b9450612158565b949350505050565b600061224861220f856040516bffffffffffffffffffffffff19606083901b166020820152600090603401604051602081830303815290604052805190602001209050919050565b84848080602002602001604051908101604052809392919081815260200183836020028082843760009201919091525061266c92505050565b90505b9392505050565b6001600160a01b03851633148061226e575061226e85336105ef565b61228a5760405162461bcd60e51b815260040161071b906135ed565b611215858585858561267b565b600080546001600160a01b038381166001600160a01b0319831681178455604051919092169283917f8be0079c531659141344cd1fd0a4f28419497f9722a3daafe3b4186f6b6457e09190a35050565b816001600160a01b0316836001600160a01b0316141561235b5760405162461bcd60e51b815260206004820152602960248201527f455243313135353a2073657474696e6720617070726f76616c20737461747573604482015268103337b91039b2b63360b91b606482015260840161071b565b6001600160a01b03838116600081815260026020908152604080832094871680845294825291829020805460ff191686151590811790915591519182527f17307eab39ab6107e8899845ad3d59bd9653f200f220920489ca2b5937696c31910160405180910390a3505050565b6001600160a01b0385163314806123e457506123e485336105ef565b6124005760405162461bcd60e51b815260040161071b906135ed565b6112158585858585612853565b6040805160018082528183019092526060916000919060208083019080368337019050509050828160008151811061244757612447613a00565b602090810291909101015292915050565b505050505050565b6001600160a01b0384163b156124585760405163f23a6e6160e01b81526001600160a01b0385169063f23a6e61906124a49089908990889088908890600401613540565b602060405180830381600087803b1580156124be57600080fd5b505af19250505080156124ee575060408051601f3d908101601f191682019092526124eb9181019061329e565b60015b61259b576124fa613a2c565b806308c379a01415612534575061250f613a48565b8061251a5750612536565b8060405162461bcd60e51b815260040161071b91906135da565b505b60405162461bcd60e51b815260206004820152603460248201527f455243313135353a207472616e7366657220746f206e6f6e20455243313135356044820152732932b1b2b4bb32b91034b6b83632b6b2b73a32b960611b606482015260840161071b565b6001600160e01b0319811663f23a6e6160e01b146120055760405162461bcd60e51b815260040161071b9061363c565b6040516001600160a01b03808516602483015283166044820152606481018290526126369085906323b872dd60e01b906084015b60408051601f198184030181529190526020810180516001600160e01b03166001600160e01b031990931692909217909152612981565b50505050565b6040516001600160a01b038316602482015260448101829052610b3d90849063a9059cbb60e01b906064016125ff565b600061224b8260085485612a53565b81518351146126dd5760405162461bcd60e51b815260206004820152602860248201527f455243313135353a2069647320616e6420616d6f756e7473206c656e677468206044820152670dad2e6dac2e8c6d60c31b606482015260840161071b565b6001600160a01b0384166127035760405162461bcd60e51b815260040161071b90613713565b3360005b84518110156127ed57600085828151811061272457612724613a00565b60200260200101519050600085838151811061274257612742613a00565b60209081029190910181015160008481526001835260408082206001600160a01b038e1683529093529190912054909150818110156127935760405162461bcd60e51b815260040161071b90613758565b60008381526001602090815260408083206001600160a01b038e8116855292528083208585039055908b168252812080548492906127d2908490613874565b92505081905550505050806127e69061398f565b9050612707565b50846001600160a01b0316866001600160a01b0316826001600160a01b03167f4a39dc06d4c0dbc64b70af90fd698a233a518aa5d07e595d983b8c0526c8f7fb878760405161283d92919061358d565b60405180910390a4612458818787878787612a69565b6001600160a01b0384166128795760405162461bcd60e51b815260040161071b90613713565b3360006128858561240d565b905060006128928561240d565b905060008681526001602090815260408083206001600160a01b038c168452909152902054858110156128d75760405162461bcd60e51b815260040161071b90613758565b60008781526001602090815260408083206001600160a01b038d8116855292528083208985039055908a16825281208054889290612916908490613874565b909155505060408051888152602081018890526001600160a01b03808b16928c821692918816917fc3d58168c5ae7397731d063d5bbf3d657854427343f4c083240f7aacaa2d0f62910160405180910390a4612976848a8a8a8a8a612460565b505050505050505050565b60006129d6826040518060400160405280602081526020017f5361666545524332303a206c6f772d6c6576656c2063616c6c206661696c6564815250856001600160a01b0316612b339092919063ffffffff16565b805190915015610b3d57808060200190518101906129f4919061324b565b610b3d5760405162461bcd60e51b815260206004820152602a60248201527f5361666545524332303a204552433230206f7065726174696f6e20646964206e6044820152691bdd081cdd58d8d9595960b21b606482015260840161071b565b600082612a608584612b42565b14949350505050565b6001600160a01b0384163b156124585760405163bc197c8160e01b81526001600160a01b0385169063bc197c8190612aad90899089908890889088906004016134e2565b602060405180830381600087803b158015612ac757600080fd5b505af1925050508015612af7575060408051601f3d908101601f19168201909252612af49181019061329e565b60015b612b03576124fa613a2c565b6001600160e01b0319811663bc197c8160e01b146120055760405162461bcd60e51b815260040161071b9061363c565b60606122488484600085612b87565b600081815b845181101561149257612b7382868381518110612b6657612b66613a00565b6020026020010151612cb8565b915080612b7f8161398f565b915050612b47565b606082471015612be85760405162461bcd60e51b815260206004820152602660248201527f416464726573733a20696e73756666696369656e742062616c616e636520666f6044820152651c8818d85b1b60d21b606482015260840161071b565b6001600160a01b0385163b612c3f5760405162461bcd60e51b815260206004820152601d60248201527f416464726573733a2063616c6c20746f206e6f6e2d636f6e7472616374000000604482015260640161071b565b600080866001600160a01b03168587604051612c5b919061340b565b60006040518083038185875af1925050503d8060008114612c98576040519150601f19603f3d011682016040523d82523d6000602084013e612c9d565b606091505b5091509150612cad828286612ce7565b979650505050505050565b6000818310612cd457600082815260208490526040902061224b565b600083815260208390526040902061224b565b60608315612cf657508161224b565b825115612d065782518084602001fd5b8160405162461bcd60e51b815260040161071b91906135da565b828054612d2c90613927565b90600052602060002090601f016020900481019282612d4e5760008555612d94565b82601f10612d6757805160ff1916838001178555612d94565b82800160010185558215612d94579182015b82811115612d94578251825591602001919060010190612d79565b50612da0929150612da4565b5090565b5b80821115612da05760008155600101612da5565b600067ffffffffffffffff831115612dd357612dd3613a16565b604051612dea601f8501601f191660200182613962565b809150838152848484011115612dff57600080fd5b83836020830137600060208583010152509392505050565b80356001600160a01b0381168114612e2e57600080fd5b919050565b600082601f830112612e4457600080fd5b81356020612e518261380c565b604051612e5e8282613962565b8381528281019150858301600585901b87018401881015612e7e57600080fd5b60005b85811015612e9d57813584529284019290840190600101612e81565b5090979650505050505050565b600082601f830112612ebb57600080fd5b61224b83833560208501612db9565b803560ff81168114612e2e57600080fd5b805169ffffffffffffffffffff81168114612e2e57600080fd5b600060208284031215612f0757600080fd5b61224b82612e17565b60008060408385031215612f2357600080fd5b612f2c83612e17565b9150612f3a60208401612e17565b90509250929050565b600080600080600060a08688031215612f5b57600080fd5b612f6486612e17565b9450612f7260208701612e17565b9350604086013567ffffffffffffffff80821115612f8f57600080fd5b612f9b89838a01612e33565b94506060880135915080821115612fb157600080fd5b612fbd89838a01612e33565b93506080880135915080821115612fd357600080fd5b50612fe088828901612eaa565b9150509295509295909350565b600080600080600060a0868803121561300557600080fd5b61300e86612e17565b945061301c60208701612e17565b93506040860135925060608601359150608086013567ffffffffffffffff81111561304657600080fd5b612fe088828901612eaa565b6000806040838503121561306557600080fd5b61306e83612e17565b9150602083013561307e81613ad2565b809150509250929050565b60008060006060848603121561309e57600080fd5b6130a784612e17565b9250602084013561ffff811681146130be57600080fd5b91506130cc60408501612eca565b90509250925092565b600080604083850312156130e857600080fd5b6130f183612e17565b946020939093013593505050565b6000806040838503121561311257600080fd5b823567ffffffffffffffff8082111561312a57600080fd5b818501915085601f83011261313e57600080fd5b8135602061314b8261380c565b6040516131588282613962565b8381528281019150858301600585901b870184018b101561317857600080fd5b600096505b848710156131a25761318e81612e17565b83526001969096019591830191830161317d565b50965050860135925050808211156131b957600080fd5b506131c685828601612e33565b9150509250929050565b6000806000604084860312156131e557600080fd5b833567ffffffffffffffff808211156131fd57600080fd5b818601915086601f83011261321157600080fd5b81358181111561322057600080fd5b8760208260051b850101111561323557600080fd5b6020928301955093506130cc9186019050612eca565b60006020828403121561325d57600080fd5b815161224b81613ad2565b60006020828403121561327a57600080fd5b5035919050565b60006020828403121561329357600080fd5b813561224b81613ae0565b6000602082840312156132b057600080fd5b815161224b81613ae0565b6000602082840312156132cd57600080fd5b813567ffffffffffffffff8111156132e457600080fd5b8201601f810184136132f557600080fd5b6121bf84823560208401612db9565b60006020828403121561331657600080fd5b5051919050565b60006020828403121561332f57600080fd5b61224b82612eca565b600080600080600060a0868803121561335057600080fd5b61335986612edb565b945060208601519350604086015192506060860151915061337c60808701612edb565b90509295509295909350565b600081518084526020808501945080840160005b838110156133b85781518752958201959082019060010161339c565b509495945050505050565b600081518084526133db8160208601602086016138fb565b601f01601f19169290920160200192915050565b600081516134018185602086016138fb565b9290920192915050565b6000825161341d8184602087016138fb565b9190910192915050565b600080845481600182811c91508083168061344357607f831692505b602080841082141561346357634e487b7160e01b86526022600452602486fd5b8180156134775760018114613488576134b5565b60ff198616895284890196506134b5565b60008b81526020902060005b868110156134ad5781548b820152908501908301613494565b505084890196505b5050505050506134d96134c882866133ef565b64173539b7b760d91b815260050190565b95945050505050565b6001600160a01b0386811682528516602082015260a06040820181905260009061350e90830186613388565b82810360608401526135208186613388565b9050828103608084015261353481856133c3565b98975050505050505050565b6001600160a01b03868116825285166020820152604081018490526060810183905260a060808201819052600090612cad908301846133c3565b60208152600061224b6020830184613388565b6040815260006135a06040830185613388565b82810360208401526134d98185613388565b60208101600483106135d457634e487b7160e01b600052602160045260246000fd5b91905290565b60208152600061224b60208301846133c3565b6020808252602f908201527f455243313135353a2063616c6c6572206973206e6f7420746f6b656e206f776e60408201526e195c881b9bdc88185c1c1c9bdd9959608a1b606082015260800190565b60208082526028908201527f455243313135353a204552433131353552656365697665722072656a656374656040820152676420746f6b656e7360c01b606082015260800190565b60208082526014908201527310d85b1b195c881a5cc8184818dbdb9d1c9858dd60621b604082015260600190565b60208082526010908201526f4e6f7420656e6f7567682066756e647360801b604082015260600190565b60208082526017908201527f5175616e74697479206265747765656e20312026203135000000000000000000604082015260600190565b60208082526025908201527f455243313135353a207472616e7366657220746f20746865207a65726f206164604082015264647265737360d81b606082015260800190565b6020808252602a908201527f455243313135353a20696e73756666696369656e742062616c616e636520666f60408201526939103a3930b739b332b960b11b606082015260800190565b60208082526008908201526714dbdb19081bdd5d60c21b604082015260600190565b60208082526028908201527f4e46547320617265206e6f742065786368616e676561626c6520666f7220746860408201526719481b5bdb595b9d60c21b606082015260800190565b600067ffffffffffffffff82111561382657613826613a16565b5060051b60200190565b600061ffff80831681851680830382111561384d5761384d6139be565b01949350505050565b600062ffffff80831681851680830382111561384d5761384d6139be565b60008219821115613887576138876139be565b500190565b600060ff821660ff84168060ff038211156138a9576138a96139be565b019392505050565b6000826138c0576138c06139d4565b500490565b60008160001904831182151516156138df576138df6139be565b500290565b6000828210156138f6576138f66139be565b500390565b60005b838110156139165781810151838201526020016138fe565b838111156126365750506000910152565b600181811c9082168061393b57607f821691505b6020821081141561395c57634e487b7160e01b600052602260045260246000fd5b50919050565b601f8201601f1916810167ffffffffffffffff8111828210171561398857613988613a16565b6040525050565b60006000198214156139a3576139a36139be565b5060010190565b6000826139b9576139b96139d4565b500690565b634e487b7160e01b600052601160045260246000fd5b634e487b7160e01b600052601260045260246000fd5b634e487b7160e01b600052602160045260246000fd5b634e487b7160e01b600052603260045260246000fd5b634e487b7160e01b600052604160045260246000fd5b600060033d1115613a455760046000803e5060005160e01c5b90565b600060443d1015613a565790565b6040516003193d81016004833e81513d67ffffffffffffffff8160248401118184111715613a8657505050505090565b8285019150815181811115613a9e5750505050505090565b843d8701016020828501011115613ab85750505050505090565b613ac760208286010187613962565b509095945050505050565b8015158114610cdd57600080fd5b6001600160e01b031981168114610cdd57600080fdfea2646970667358221220026cd5236540621fc93ebda4a73d612169d0a0220951e3c772464ea901bfc20064736f6c63430008070033",
  "linkReferences": {},
  "deployedLinkReferences": {}
}